:020000040800F2
:10000000880600204501000857330008672E0008C5
:1000100055330008F90800086539000800000000A1
:100020000000000000000000000000007B3300081A
:100030003309000800000000793300087D33000810
:100040005F0100085F0100085F0100085F01000810
:100050005F0100085F0100085F0100085F01000800
:100060005F0100085F0100085F010008FD0800084B
:100070005F0100085F010008090900085F0100082E
:100080005F0100085F010008BD0700085F0100086C
:100090005F0100085F0100085F0100085F010008C0
:1000A0005F0100085F0100085F0100084934000893
:1000B0005F0100085F0100085F0100085F010008A0
:1000C0005F0100085F0100085F0100085F01000890
:1000D0005F010008593900085F0100085F0100084E
:1000E0005F0100085F0100085F0100085F01000870
:1000F0005F0100085F0100085F0100085F01000860
:100100005F0100085F0100085F0100085F0100084F
:100110005F0100085F0100085F0100085534000816
:100120005F0100085F0100085F0100085F0100082F
:10013000DFF80CD000F030FB00480047713A0008AF
:10014000880600200648804706480047FEE7FEE78D
:10015000FEE7FEE7FEE7FEE7FEE7FEE7FEE7FEE777
:100160000134000831010008202A04DB203A21FA7A
:1001700002F00021704721FA02F3D040C2F12002C0
:100180009140084319467047F0B480EA0102D40F49
:100190004200B2EB410F02D20246084611464A0025
:1001A00042D0C30DDDB2C1F3C752AD1A202D35DAEE
:1001B000C1F3160141F4000204B15242C5F1200618
:1001C00002FA06F12A411044B3EBD05F23D0C4B148
:1001D000012DA0EBC35009DCF0BC4FF0004202EA55
:1001E000C35200F50000DBB200F04ABA400000F153
:1001F000807000EBC350A0F1807040EAD1704900DC
:1002000009E0490841EAC071A0EBC35000F50000C5
:10021000400800EBC350F0BC00F029BA6142012253
:1002200002EB4101001BF6E7F0BC704781F0004192
:10023000AAE780F00040A7E780EA010210B502F0CB
:100240000043400026D04A0023D04FEA106101EB62
:100250001261C0F35600C2F3560240F4000042F4AB
:100260000002A0FB0220A1F17F014FEA004014042C
:1002700001D000F1010050EA124001D44000491EB3
:10028000C2B20C0604EBD010401C4008802A02D0F9
:1002900003E0002010BD20F00100002900DA00205A
:1002A000184310BD30B480EA010202F0004530F07E
:1002B000004221F0004015D0A0B1C0F3C753C2F3F3
:1002C000C754C2F31601C0F31600E41A41F400014A
:1002D00040F400027D34914201D3641C00E04900E7
:1002E000002C02DA30BC002070474FF400000023DD
:1002F000914201D3891A034340084FEA4101F7D1E3
:1003000051B1914202D14FF0004105E002D24FF0CD
:10031000010101E06FF0010103EBC450284430BC3F
:1003200000F0A5B92DE9FE4F804681EA0300C00F19
:100330000C46009021F0004123F00045B8EB02008C
:10034000A94105D24046214690461C460B4602462E
:1003500023F00040104304D14046214603B0BDE8DD
:10036000F08F270DC7F30A00C3F30A510290401A19
:100370000190402866DAC3F3130040F4801B009814
:10038000924620B10023D2EB030A63EB0B0B0198DA
:100390005946C0F14002504600F048F906460D4665
:1003A00050465946019A00F050F910EB080061419F
:1003B000002487EA115284EAE7731A433BD0009A7B
:1003C0003AB3019A012A4FEA075210DC001B61EB95
:1003D00002014FF0004202EA0752CDE90042001C40
:1003E00041F5801132462B4600F084F9B6E7001B38
:1003F00061EB0201001C41F5801300185B412018DD
:10040000A2F5001747EB030140EAD570B6196D411C
:1004100011E06D084FEA360645EAC0754FEA07520B
:10042000001B61EB0201001C41F5801149084FEAF5
:1004300030000019514132462B4603B0BDE8F04F61
:1004400000F04BB90098012240000023D0EB0202DB
:1004500063EBE073009821464FEAE074B8EB0000CC
:1004600061EB0401E9E783F000435BE781F00041C1
:1004700058E72DE9FE4F81EA030404F0004421F01F
:10048000004100944FF0000B23F0004350EA0104B8
:1004900002D052EA030404D10020014603B0BDE8B3
:1004A000F08FC3F30A54C1F30A552C44A4F2F33479
:1004B0000194A0FB0254C1F3130141F48011C3F372
:1004C000130343F4801301FB024400FB034E840A30
:1004D000970A44EA815447EA8357A4FB07680295C8
:1004E0008D0A05FB07854FEA932C04FB0C54270566
:1004F000029D4FEA065847EA1637B5EB08056EEB42
:10050000070C870E920E47EA811742EA8312A7FB77
:100510000201B6EB0B0164EB00042B0D43EA0C3334
:100520005E1844EB1C50DA465146E7FB0201C5F366
:1005300013044FEA0B3343EA14534FEA0432019C8D
:1005400043EA0603A4F10C040294009CCDE900B434
:1005500000F0D0F8A2E7C10F80EAE0700844CA07B3
:100560009623002100F08CB80EB540F23341029181
:100570000021CDE900110A460B4600F0BBF803B09C
:1005800000BD00F0004220F00040C10DC0F3160095
:1005900040F400007F2901DA00207047962903DC2F
:1005A000C1F19601C84001E096398840002AF4D094
:1005B0004042704700F0004230F000400AD0C10DC8
:1005C00001F56071C0F3160042EA0151C20840070C
:1005D00011437047002001467047000030B50029E4
:1005E00004DB4FF00044404264EB0101002B04DBCC
:1005F0004FF00044524264EB03038B4208BF824237
:1006000030BD000030B5002904DB4FF0004440420B
:1006100064EB0101002B04DB4FF00044524264EB19
:100620000303994208BF904230BD0000202A04DB3A
:10063000203A00FA02F1002070479140C2F12003F5
:1006400020FA03F3194390407047202A06DBCB17AA
:10065000203A41FA02F043EAE07306E041FA02F37D
:10066000D040C2F12002914008431946704700294A
:10067000A8BF7047401C490008BF20F00100704728
:1006800010B4B0FA80FC00FA0CF050EA010404BF88
:1006900010BC704749B1CCF1200421FA04F411FADE
:1006A0000CF118BF012121430843A3EB0C01CB1D22
:1006B0000106000A002BBEBF002010BC704700EBF3
:1006C000C35010440029A4BF10BC7047401C49000F
:1006D00008BF20F0010010BC704710B5002B08DAED
:1006E000401C41F1000192185B411A4301D120F0F6
:1006F000010010BD2DE9F04D92469B4611B1B1FAB3
:1007000081F202E0B0FA80F220329046FFF78EFFCD
:1007100004460F4640EA0A0041EA0B0153465A4696
:10072000084303D120463946BDE8F08D114653EA0F
:10073000010015D0C8F140025046FFF715FD0546EF
:100740000E46504659464246FFF770FF084301D017
:10075000012000E00020054346EAE0762C433743C1
:100760000A984FEA4453A0EB08004FEAD4240A3019
:100770004FF0000244EA47544FEAD72502D5002043
:100780000146D1E7010510196941DDE90845001965
:100790006941BDE8F04DA0E7064C074D06E0E06872
:1007A00040F0010394E8070098471034AC42F6D3B8
:1007B000FFF7C2FC5C3D00087C3D0008014800F0EA
:1007C00073BA00002002002070B5044600688168FA
:1007D000C943C9071CD1816821F00101816001F082
:1007E000C7F805460FE000BF01F0C2F8401B022821
:1007F00009D9A06A40F01000A062E06A40F0010050
:10080000E062012070BD20688068C043C007EBD063
:10081000002070BD10B50146406A826A12F0500F88
:1008200005D0006A026BBDE8104008461047816A97
:1008300041F40071816201688968C1F3424107296E
:100840000CD1C16851B9816A21F480718162816AD9
:10085000C90403D4816A41F00101816200F0A0F96A
:1008600010BD10B5406A816A41F040018162C16AE1
:1008700041F00401C16200F016FA10BD10B5406AE3
:1008800000F010FA10BD0000F8B5002604460096EE
:1008900000688168C943C90728D0816841F0010117
:1008A0008160134813490068B0FBF1F000E0401E7E
:1008B00000900028FBD101F05BF8054611E000BF75
:1008C00001F056F8401B02280BD9A06A40F0100036
:1008D000A062E06A40F00100E06284F82460012038
:1008E000F8BD20688068C043C007E9D10020F8BD8A
:1008F0006C00002040420F00FEE70000014800F0BD
:10090000C7BB000050020020014800F0C1BB00003E
:10091000E801002010B5046863604368102B036889
:1009200003D099600068C26010BD9A600068C16021
:1009300010BD7047FEE7000006490020C861064868
:10094000016941F004010161016941F04001016167
:10095000704700007000002000200240064A00217D
:10096000D16106490A6942F002020A6148610869D8
:1009700040F04000086170477000002000200240F5
:10098000044B0022DA61044A136943F00103136146
:100990000180704770000020002002400E49C868A6
:1009A000C2060E4803D5C26942F00202C261CA689B
:1009B000520703D5C26942F00102C261CA69D20777
:1009C00007D0C26942F00402C261C86920F0010088
:1009D000C8611420C86070470020024070000020E9
:1009E00070B5054600F0C4FF0646114C09E0681CCE
:1009F00007D025B100F0BCFF801BA84201D903201D
:100A000070BDE068C007F2D1E068800601D5202003
:100A1000E060E068C00605D4E069C00702D1E06884
:100A2000400703D5FFF7BAFF012070BD002070BD5D
:100A30000020024070470000F8B50025009590F8AE
:100A40002420AE46012A1ED0012280F824204A68C4
:100A50001F244FF47873072A17D20668776B93FA2E
:100A6000A3FC521EBCFA8CFC02FB0CFC04FA0CF436
:100A7000A74393FAA3F3B3FA83F30C685A43944061
:100A8000274377632DE00220F8BD06680D2A14D2B3
:100A9000376B93FAA3FCD21FBCFA8CFC02FB0CFC54
:100AA00004FA0CF4A74393FAA3F3B3FA83F30C68A4
:100AB0005A4394402743376313E0F76A93FAA3FC41
:100AC0000D3ABCFA8CFC02FB0CFC04FA0CF4A743B4
:100AD00093FAA3F3B3FA83F30C685A439440274381
:100AE000F7620A683823072406680A2A14D3F768CD
:100AF00093FAA3FC0A3ABCFA8CFC02FB0CFC04FA45
:100B00000CF4A74393FAA3F3B3FA83F38C685A4324
:100B100094402743F76012E0376993FAA3FCBCFACC
:100B20008CFC02FB0CFC04FA0CF4A74393FAA3F32D
:100B3000B3FA83F38C685A439440274337610A68B9
:100B4000102A01D0112A20D1124B02689A4217D1E3
:100B500093681B0219D4936843F4000393600968F7
:100B6000102912D10C490D4A0968B1FBF2F101EBD1
:100B70008101490000E0491E00910029FBD104E0F9
:100B8000816A41F020018162012580F824E0284635
:100B9000F8BD0000002401406C00002040420F001E
:100BA0002DE9F0473B493C4C0888C0F30B00E0823C
:100BB0008888C0F30B00E0830889C0F30B006083D2
:100BC0008989B0F52F6FC1F30B01A18388462146B7
:100BD0000D6B07D9208B4008208305EBD5704010A2
:100BE000206351E0218A081A42F210714843616B78
:100BF0006063471AFFF7AFFC216DFFF71DFBDFF8BD
:100C00009C904946FFF74EFB06463846FFF7A3FC8B
:100C1000E16CFFF711FB3146FFF7B6FAFFF7B1FCC5
:100C2000A16B0844618A884200DD0846A063A0EBFE
:100C3000080042F210714843E16AE062471AFFF788
:100C40008AFCA16CFFF7F8FA4946FFF72BFB064632
:100C50003846FFF780FC616CFFF7EEFA3146FFF78C
:100C600093FAFFF78EFC291842F2107091FBF0F016
:100C70004FF46162904201DD104604E0002801DA81
:100C8000002000E0216320830549208B0968086467
:100C9000BDE8F087900000200400002000409C4642
:100CA000F40000207047704710B5044600684168A2
:100CB000890626D50168890723D5A16AC90603D408
:100CC000A16A41F40071A1628168C1F34241072920
:100CD00010D1E16871B9416821F020014160A06A3A
:100CE00020F48070A062A06AC00403D4A06A40F01F
:100CF0000100A0622046FFF753FF21686FF0120049
:100D000008602068416809062ED5016849072BD57F
:100D1000A16AC90603D4A16A41F40051A1628168A5
:100D2000C1F30231072909D04168490515D481680A
:100D3000C1F34241072910D1E16871B9416821F03E
:100D400080014160A06A20F48050A062A06AC005C2
:100D500003D4A06A40F00100A0622046FFF76AFEBB
:100D600021686FF00C0008602068416849060DD5C5
:100D70000068C0070AD0A06A40F48030A062204614
:100D800000F0AAF821686FF00100086010BD0000B3
:100D90002DE9F04104004FF0000503D0A06A0026C1
:100DA00018B108E00120BDE8F081E66284F8246013
:100DB000204600F093F82046FFF706FD0146A06AA2
:100DC00000F01002A06A0A4303D040F01000A062B5
:100DD00079E020F4885040F00200A0623B4823688C
:100DE0008342E06904D1B0F5402F01D14FF40020D7
:100DF000022292FAA2F2E768B2FA82F207FA02F24B
:100E0000104362684FF4807C1043A268624509D0A9
:100E1000012A07D05FF00002D4F814E0BEF1010F00
:100E200002D00AE06246F7E7C7B1A76A47F0200799
:100E3000A762E76A47F00107E7625F6827F469473E
:100E400017435F6022689368214F3B4003439360E0
:100E5000A268624510D0012A0ED016E0A7694FF4AF
:100E6000604E9EFAAEFE7F1EBEFA8EFE07FA0EF7A9
:100E7000174347F40062E0E725694FF4700292FAE5
:100E8000A2F26D1EB2FA82F295402268D36A23F470
:100E900070032B43D362226892680E4B1A40824241
:100EA00007D1E662A06A20F0020040F00100A062D3
:100EB0000AE0A06A20F0020040F01000A062E06AA0
:100EC00040F00100E062012108466CE7003C01406F
:100ED000FDF7E1FFFE0E1FFF7047000030B505462D
:100EE0000068214985B088423CD12048816941F49D
:100EF000007181618069032400F40070049008206F
:100F0000CDE9000469461A4800F02EFC3020CDE9F6
:100F100000046946174800F027FC0220CDE90004D0
:100F20006946154800F020FC154C144880212060CB
:100F300000206060C4E90201890021618900C4E9E0
:100F40000510E061204600F0FFFA08B1FFF7F2FC5F
:100F50002C62002211461220656200F087FD1220EB
:100F600000F078FD05B030BD0024014000100240C3
:100F70000008014000100140000C01400800024040
:100F8000500200202DE9F047894604463B4900689D
:100F90003B4F0E1D9046884201D0B84207D13068C1
:100FA00010F4702F03D001252846BDE8F08794F88F
:100FB000240001280CD0012084F824002046FFF7EB
:100FC00063FC05004FF0000004D084F82400EBE738
:100FD0000220EAE7A16A40F60162914341F4807180
:100FE000A1622168B94218D1326812F4702F14D06E
:100FF000A16A41F48011A1623168490505D5A16A51
:1010000021F4005141F48051A162A16AC9040AD5BA
:10101000E16A21F00601E16206E0A26A22F4801290
:10102000A2624968E9E7E06284F82400216A154871
:101030008862216A1448C862216A144808632168DA
:101040006FF0020008602068816841F4807181605F
:10105000216843464C314A46206A00F09DFA2068D8
:101060008168C1F342410729816803D041F48011AE
:10107000816099E741F4A001FAE7000000240140F3
:1010800000280140150800087D08000863080008D2
:101090002DE9F05F0446F94AF84DF84EF74F006825
:1010A000DFF8D893DFF8D4A3DFF8D0B3D114783DBC
:1010B000643E503F4FF4000E4FF4004C4FF40028B4
:1010C000A9F13C09AAF1280AABF1140B904221D9ED
:1010D000EB4A1368A8420FD0B0420FD0B84213D0E9
:1010E000484513D0504513D0584501D1724624E0ED
:1010F000E34A083290423CD108221EE080221CE0E4
:10110000DF4A3032904239D10A4616E0624614E096
:10111000424612E0D94A803A1368A842ECD0B04265
:10112000ECD0B842F0D04845F0D05045F0D058450A
:10113000DCD0D24A9042DBD10205134279D002685A
:10114000D243120775D4026822F008020260CB4A2B
:101150002068904232D9A84219D0B0421DD0B8427E
:1011600028D0484523D0504523D058450BD171464F
:1011700020E0C34A1C329042C2D1BFE7C04A443289
:101180009042C5D1C2E7BE4A0832904201D108213F
:1011900010E0BB4A1C32904201D180210AE0B84ADB
:1011A0003032904206D0B6494431884201D161467E
:1011B00000E04146B248001D01602CE0A84214D076
:1011C000B04218D0B84223D048451ED050451ED05A
:1011D000584501D171461BE0904202D14FF00061A9
:1011E00016E0A74A0832904201D1082110E0A44A33
:1011F0001C32904201D180210AE0A14A3032904253
:1012000006D09F494431884201D1614600E0414601
:101210009A4880384160606B40F0010060630420B0
:1012200084F82100002084F82000216B09B12046B9
:101230008847924A206811154FF4800E4FF4804C75
:101240004FF48028904221D98D4A1368A8420FD0CC
:10125000B0420FD0B84213D0484513D0504513D0F8
:10126000584501D1724624E0854A083290423FD168
:1012700004221EE040221CE0814A303290423CD1E0
:101280000A4616E0624614E0424612E07B4A803A83
:101290001368A842ECD0B042ECD0B842F0D0484538
:1012A000F0D05045F0D05845DCD0744A9042DBD1A4
:1012B000C204134275D00268D243520771D4026847
:1012C000920603D4026822F0040202606B4A20688E
:1012D000904232D9A84219D0B0421DD0B84228D08D
:1012E000484523D0504523D058450BD1714620E0C6
:1012F000634A1C329042BFD1BCE7614A44329042FB
:10130000C2D1BFE75E4A0832904201D1042110E009
:101310005B4A1C32904201D140210AE0584A3032E7
:10132000904206D056494431884201D1614600E0DE
:1013300041465348001D01602CE0A84214D0B04241
:1013400018D0B84223D048451ED050451ED058452D
:1013500001D171461BE0904202D14FF0806116E04E
:10136000474A0832904201D1042110E0444A1C321D
:10137000904201D140210AE0414A3032904206D0E9
:101380003F494431884201D1614600E041463B4833
:1013900080384160112084F82100E16A09B12046BB
:1013A0008847364A206851154FF4005C4FF4003EE0
:1013B000904228D9324B1B68A84212D0B04213D0B9
:1013C000B8421AD048451AD050451AD0584502D1D3
:1013D0004FF400182AE0DFF8A88008F1080840451B
:1013E00044D14FF0020821E04FF020081EE0DFF862
:1013F000908008F13008404544D1884616E0E04628
:1014000014E0F04612E01D4B803B1B68A842E8D078
:10141000B042E9D0B842F0D04845F0D05045F0D0C5
:101420005845D5D09042D6D14FF0007813EA080F36
:1014300070D00368DB439B077FD403689B0603D40B
:10144000036823F0020303602068904239D9A84260
:1014500021D0B04225D0B8422FD048452AD050459F
:101460002AD0584513D14FF4001126E0DFF8108040
:1014700008F11C084045BAD1B6E7000080000240E0
:1014800000040240DFF8B8804045BAD1B7E72C4AE3
:101490003C3A904201D102210FE0294A283A904279
:1014A00001D1202109E0264A143A904205D024496E
:1014B000884201D1614600E0714621484038016010
:1014C0002CE0A84215D0B04219D0B84224D04845EB
:1014D0001ED050451FD0584502D14FF400111BE0DB
:1014E000904202D14FF0007116E0154A3C3A90420A
:1014F00001D1022110E0124A283A904201D1202164
:101500000AE00F4A143A904206D00D49884202D1AF
:10151000614601E011E071460A484160606B60631A
:10152000012084F82100002084F82000A16A00290D
:1015300003D02046BDE8F05F0847BDE8F09F0000FB
:10154000440402400000024070B520B190F8211020
:10155000002411B103E0012070BD80F82040022179
:1015600080F8211003681A6843F6F0718A43D0E9C5
:1015700001152943D0E903563543294345692943D9
:1015800085692943C56929431143196044630121D1
:1015900080F82110002070BD70B5044690F820003E
:1015A000012823D0012084F82000022084F82100A3
:1015B0002068056825F0010505602046FFF7AAF9B7
:1015C0002068016841F0020101602068016841F073
:1015D000040101602068016841F008010160206891
:1015E000016841F001010160002070BD022070BD62
:1015F00031B500F0BDF9044600F0BAF90099001BBE
:101600008842F9D338BD00002DE9F0470546264849
:101610000F460126017E01290FD001218146017666
:101620002868DFF888804CF25034022808D0A2469F
:101630002046FFF7D5F9A8B131E00220BDE8F087D8
:101640002046FFF7CDF908BB0120FFF775F92046CA
:10165000FFF7C6F9D8F81010064621F00401C8F8C3
:1016600010101CE04FF0FF303860AC6811E02046ED
:10167000FFF774F95046FFF7B3F9D8F810100600D9
:1016800021F00201C8F8101001D03C6007E004F519
:101690000064D5E9020100EBC120A042E7D8002197
:1016A00089F818103046C9E7700000200020024079
:1016B0000348016941F0800101610020704700008A
:1016C000002002402DE9F05F07461C4888460024B0
:1016D000017E15461E46012909D001218146017669
:1016E0004CF2503A5046FFF77BF918B122E0022045
:1016F000BDE8F09F012F02D0022F00D00427D3466F
:10170000DFF83CA0220128463146FEF72DFD81B2CC
:1017100008EB4400FFF734F95846FFF761F9DAF8AF
:10172000102022F00102CAF8102018B9641CE4B29B
:10173000BC42E7D3002289F81820D9E770000020C6
:101740000020024005480169090605D504494160A9
:10175000044941600020704701207047002002408A
:1017600023016745AB89EFCD2DE9F84FDFF8C0A124
:1017700000220AF1040B14464FF0010C4FF00F0940
:101780000BF1040E0B680CFA04F52B40AB4271D13F
:10179000684F4E68A6EB0708BE422BD00DDC032E27
:1017A00034D005DC36B3012E19D0022E2FD11BE028
:1017B000112E16D0122E2AD119E0B8F5881F19D093
:1017C00006DCB8F5803F15D0B8F5801F1FD111E0B9
:1017D000B8F5001F0ED0B8F5041F18D10AE0CA688A
:1017E00015E0CA68121D12E0CA6808320FE0CA6824
:1017F0000C320CE08A682AB1012A4FF0080203D0AB
:10180000456104E0042202E0056100E00022FF2BB4
:1018100001D8074601E000F104074FEA840601D928
:10182000A6F120063D6809FA06F825EA080502FA3D
:1018300006F645EA06053D604D68ED0071D53E4D62
:10184000AE6946F00106AE61AD6924F0030605F00D
:1018500001050095394D7719BD68A607360F09FABD
:1018600006F825EA0805DFF8D880404503D14FF097
:10187000000825E055E0DFF8CC80404502D14FF06C
:1018800001081DE0DFF8C080404502D14FF002089A
:1018900016E0DFF8B880404502D14FF003080FE0B2
:1018A000DFF8AC80404502D14FF0040808E0DFF8D3
:1018B000A480404502D14FF0050801E04FF0060832
:1018C00008FA06F848EA0508C7F808804D68DAF80B
:1018D0000060ED03002D554601DA1E4300E09E43F3
:1018E0002E604D68DBF80060AD03002D5D4601DA27
:1018F0001E4300E09E432E604D68DEF80060ED025E
:10190000002D754601DA1E4300E09E432E604D68AF
:10191000AD02002D104D2E6801DA1E4300E09E43FB
:101920002E60641C102CFFF42DAFBDE8F88F000072
:1019300000040140000011100010024000000140AE
:1019400000080140000C014000100140001401405B
:1019500000180140001C01400C040140C2684A40CC
:10196000C26070470AB1016170470904FBE70000DB
:10197000014800687047000000000020024801682C
:10198000491C01607047000000000020074810B5A6
:10199000016841F010010160032000F087F8002089
:1019A00000F006F800F016F8002010BD00200240FC
:1019B00010B5044600F0E2F94FF47A71B0FBF1F093
:1019C00000F056FD00222146501E00F04FF8002086
:1019D00010BD00001D4808B5816941F00101816119
:1019E000806900F001000090032000F05FF8002201
:1019F00011466FF00B0000F039F8002211466FF02D
:101A00000A0000F033F8002211466FF0090000F0E0
:101A10002DF800221146501F00F028F80022114630
:101A2000101F00F023F800221146901E00F01EF84F
:101A300000221146501E00F019F80548416821F0B7
:101A4000E06141F08061416008BD0000001002408B
:101A50000000014000F01F020121914040094FF0B9
:101A6000E02202EB8000C0F800117047F0B40E4B8A
:101A70001B680C46C3F30223C3F10705042D00D9EC
:101A80000425191D072901D2002300E0DB1E0126D1
:101A900006FA05F1491E214099409E40761E1640E7
:101AA0003143F0BC01F058BC0CED00E0064900F0F9
:101AB000070208684FF6FF03184040EA0220034A75
:101AC00010430860704700000CED00E00000FA05CC
:101AD0002DE9F84305460078434CC00770D0E06913
:101AE00040F08050E061E069404E00F0805000908E
:101AF000306840F480703060FFF73AFF074604E03A
:101B0000FFF736FFC01B64282FD83068C005F7D513
:101B1000206A10F440704DD0A98801F440718142D0
:101B200048D0206A01263204314992FAA2F3B3FA6E
:101B300083F320F4407041F8236092FAA2F2B2FAE3
:101B400082F2002341F822302062C00732D0FFF732
:101B50000FFF074641F288394FF0020808E000BF46
:101B6000FFF706FFC11B494502D90320BDE8F883F2
:101B700098FAA8F1B1FA81F141F040014046B6EB84
:101B8000511F01D121680BE090FAA0F1B1FA81F167
:101B900041F04001B0EB511F01D1216A00E0616AC0
:101BA00098FAA8F0B0FA80F000F01F0206FA02F0EE
:101BB0000142D5D0206A696820F440700843206251
:101BC0002878800705D56068A96820F4404008435C
:101BD00060602878C00605D56068696920F48000D7
:101BE000084360600020C1E7001002400070004020
:101BF000000442422DE9F047DFF8708105460E46A9
:101C0000D8F8000000F00700B0420CD2D8F800105D
:101C100021F007013143C8F80010D8F8000000F0A7
:101C20000700B04277D12878514C800705D560680D
:101C3000A96820F0F000084360602878C00759D0F8
:101C40006968012001290DD0022929D05FF0020323
:101C500093FAA3F2B2FA82F242F02002520904D0BF
:101C6000226803E04FF40033F2E7626A93FAA3F3C9
:101C7000B3FA83F303F01F03984002424BD060682D
:101C800020F0030008436060FFF772FE69680746B2
:101C900041F2883001290DD00229814617D025E074
:101CA0004FF00073D4E700BFFFF762FEC11B494548
:101CB00001D918E081466068C0F381000128F3D1A2
:101CC00018E000BFFFF754FEC11B49450BD8606800
:101CD000C0F381000228F5D10CE000BFFFF748FEF9
:101CE000C11B494502D90320BDE8F087606810F0A8
:101CF0000C0FF3D1D8F80010404601F00701B142B3
:101D00000BD9016821F0070131430160006800F040
:101D10000700B04201D00120E6E72878400705D54A
:101D20006068E96820F4E060084360602878000794
:101D300006D56068296920F4605040EAC1006060FF
:101D400000F052F86168F02292FAA2F201F0F0017C
:101D5000B2FA82F2D140074A515CC8400649086095
:101D60000020FFF725FE0020BEE700000020024013
:101D700000100240443D00086C000020014800684B
:101D8000704700006C000020084809490068496855
:101D90004FF4E06292FAA2F201F4E061B2FA82F248
:101DA000D140044A515CC840704700006C000020DC
:101DB00000100240543D000808480949006849687D
:101DC0004FF4605292FAA2F201F46051B2FA82F238
:101DD000D140044A515CC840704700006C000020AC
:101DE00000100240543D000810B585B01AA301ACA4
:101DF000D3E901011A68DB6800920BC41AA01B4BDF
:101E0000006804905A681A4802F00C0104291ED098
:101E100008291CD14FF4701494FAA4F402F4701140
:101E2000B4FA84F421FA04F1D2031DF8011010D59C
:101E30005A684FF4003393FAA3F302F40032B3FA72
:101E400083F3DA4004AB9A5CB0FBF2F0484305B090
:101E500010BD08484843FAE70203040506070809CD
:101E60000A0B0C0D0E0F10100102000000100240B2
:101E700000127A0000093D002DE9F84F0446007871
:101E8000F94DC0074FF0010625D068687704C0F30C
:101E90008100012807D06868C0F3810002281BD1A7
:101EA0006868C00318D597FAA7F0B0FA80F040F040
:101EB0002000400901D0286800E0686A97FAA7F17D
:101EC000B1FA81F101F01F0106FA01F108425ED07A
:101ED000606800287CD05AE06068B0F5803F0BD085
:101EE00010B1B0F5A02F11D0286820F48030286000
:101EF000286820F4802002E0286840F480302860C0
:101F0000606828B3FFF734FD80460BE0286840F492
:101F100080202860F0E700BFFFF72AFDA0EB080053
:101F2000642870D897FAA7F0B0FA80F040F020004B
:101F3000400901D0286800E0686A97FAA7F1B1FA71
:101F400081F101F01F0106FA01F10842E4D01EE020
:101F5000FFF70EFD804605E0FFF70AFDA0EB080045
:101F60006428DED897FAA7F0B0FA80F040F020009D
:101F7000400901D0286800E0686A97FAA7F1B1FA31
:101F800081F101F01F0106FA01F10842E4D1207845
:101F9000DFF8D88280074FF000094FF0020731D5F3
:101FA00068684FF0F80B10F00C0F07D06868C0F3AA
:101FB0008100022828D16868C00325D497FAA7F0C9
:101FC000B0FA80F040F02000400902D0286801E01B
:101FD00083E0686A97FAA7F1B1FA81F101F01F0175
:101FE00006FA01F1084202D02069012875D128685B
:101FF0009BFAABF220F0F8016069B2FA82F29040ED
:102000000143296059E059E1206980B396FAA6F1AD
:10201000B1FA81F148F82160FFF7AAFC824605E099
:10202000FFF7A6FCA0EB0A0002289AD897FAA7F0BF
:10203000B0FA80F040F02000400901D0286800E0AC
:10204000686A97FAA7F1B1FA81F101F01F0106FA67
:1020500001F10842E4D028689BFAABF26169B2FA58
:1020600082F220F0F80091400843286025E0FFE765
:1020700096FAA6F2B2FA82F248F82290FFF778FCBC
:10208000824605E0FFF774FCA0EB0A000228CCD8DA
:1020900097FAA7F0B0FA80F040F02000400901D094
:1020A000286800E0686A97FAA7F1B1FA81F101F0B7
:1020B0001F0106FA01F10842E4D1207800076AD531
:1020C0006B48A169A9B396FAA6F1B1FA81F140F87B
:1020D0002160FFF74DFC824606E072E1FFF748FC05
:1020E000A0EB0A000228A0D897FAA7F0B0FA80F077
:1020F00040F06000B6EB501F01D128680BE097FA62
:10210000A7F0B0FA80F040F06000B7EB501F01D1AB
:10211000286A00E0686A97FAA7F1B1FA81F101F044
:102120001F0106FA01F21042D8D00120FFF760FA31
:1021300031E0FFE796FAA6F2B2FA82F240F8229076
:10214000FFF716FC824605E0FFF712FCA0EB0A0041
:1021500002289CD897FAA7F0B0FA80F040F060000F
:10216000B6EB501F01D128680BE097FAA7F0B0FA40
:1021700080F040F06000B7EB501F01D1286A00E00A
:10218000686A97FAA7F1B1FA81F101F01F0106FA26
:1021900001F21042D8D12078400764D5E86940F0B8
:1021A0008050E861E869DFF8CCB000F08050009022
:1021B000DBF8001041F48071CBF80010FFF7D8FB7A
:1021C000824605E0FFF7D4FBA0EB0A00642875D82F
:1021D000DBF80000C005F5D5E06801280AD008B199
:1021E000052813D0286A20F001002862286A20F010
:1021F000040002E0286A40F001002862E06841F231
:10220000883BC8B3FFF7B4FB82460BE0286A40F076
:1022100004002862EEE700BFFFF7AAFBA0EB0A016B
:1022200059454BD897FAA7F0B0FA80F040F040003B
:10223000B6EB501F01D128680BE097FAA7F0B0FA6F
:1022400080F040F04000B7EB501F01D1286A00E059
:10225000686A97FAA7F1B1FA81F101F01F0206FA54
:1022600002F10842D8D035E000100240000042429E
:102270008004424200700040FFE7FFF779FB82468E
:1022800006E000BFFFF774FBA0EB0A00584515D825
:1022900097FAA7F0B0FA80F040F04000B6EB501F7C
:1022A00001D128680CE097FAA7F0B0FA80F040F06E
:1022B0004000B7EB501F02D1286A01E087E0686A4E
:1022C00097FAA7F1B1FA81F101F01F0206FA02F1C3
:1022D0000842D7D1E06988B36968C1F38101022956
:1022E0006FD04FF080714F0002284A4609D091FA12
:1022F000A1F1B1FA81F148F82120FFF739FB04463A
:1023000068E091FAA1F0B0FA80F0C1468A4648F838
:102310002020FFF72DFB804606E000BFFFF728FBDB
:10232000A0EB0800022852D897FAA7F0B0FA80F084
:1023300040F02000400902D0286801E05FE0686AB0
:1023400097FAA7F1B1FA81F101F01F0106FA01F144
:102350000842E3D1206AB0F5803F05D16868A168E2
:1023600020F4003008436860D4E908010843696834
:1023700021F47411084368609AFAAAF1B1FA81F164
:1023800049F82160FFF7F4FA044604E0FFF7F0FA99
:10239000001B02281BD897FAA7F0B0FA80F040F093
:1023A0002000400901D0286800E0686A97FAA7F188
:1023B000B1FA81F101F01F0106FA01F10842E5D0FE
:1023C0001DE01EE0FFF7D4FA001B022802D903200B
:1023D000BDE8F88F97FAA7F0B0FA80F040F020003F
:1023E000400901D0286800E0686A97FAA7F1B1FABD
:1023F00081F101F01F0106FA01F10842E2D100204B
:10240000E6E70120E4E74FF0E0210428086903D063
:1024100020F004000861704740F00400FAE7000073
:102420001248817A21B1C17BFF2901D2491CC173B5
:102430000178002259B9018D40F6B833491C89B2A0
:102440000185994203D902850121017241724178C7
:10245000002909D0438C5B1C9BB24384B3F57A7F7F
:1024600002D94284491C41707047000004000020DA
:1024700010B5401EB0F1807F01D3012010BD4FF098
:10248000E02460610F21601700F066FF0020A0616A
:1024900007202061002010BD10B5FFF7C1FF10BD5F
:1024A0007047704730B590F83820012A19D00122C2
:1024B00000F8382F02234370D1E900342343D1E9D7
:1024C00002452C4323430C6923434C698969234308
:1024D0000B4350F8381C4B644270002101700846D1
:1024E00030BD022030BD30B590F83820012A20D010
:1024F000012280F83820022380F8393003685C68B4
:1025000024F070045C6003685C680D682C435C60B8
:1025100003689C6824F080049C6003689C68496898
:102520000C439C6080F83920002180F83810084660
:1025300030BD022030BD10B5040003D094F839003E
:1025400010B107E0012010BD002084F838002046BB
:1025500000F00CF8022084F83900211D206800F0FA
:102560007FFF012084F83900002010BD08B5006805
:102570000B49884212D10B48C16941F02001C16169
:10258000C069002200F02000009011463720FFF7BC
:102590006DFABDE808403720FFF75CBA08BD0000BF
:1025A00000140040001002400168CA6842F00102B5
:1025B000CA600068016841F00101016000207047B5
:1025C0000168CA6822F00102CA600068016A41F22B
:1025D0001112114207D1016A9210114203D1016810
:1025E00021F00101016000207047704770B504467A
:1025F000006801694FF00005C943890715D4C16817
:10260000C943890711D4E91E0161012020762068A1
:1026100080698007204602D0FFF7E7FF04E000F062
:10262000C5F8204600F0BAF9257620680169C9434B
:10263000490717D4C168C943490713D46FF004018F
:102640000161022020762068806910F4407F2046D6
:1026500002D0FFF7CAFF04E000F0A8F8204600F01F
:102660009DF9257620680169C943090716D4C16818
:10267000C943090712D46FF00801016104202076D4
:102680002068C0698007204602D0FFF7AEFF04E053
:1026900000F08CF8204600F081F925762068016969
:1026A000C943C90617D4C168C943C90613D46FF01A
:1026B00010010161082020762068C06910F4407F75
:1026C000204602D0FFF791FF04E000F06FF82046AB
:1026D00000F064F9257620680169C943C90708D16B
:1026E000C168C943C90704D1891E0161204600F0B1
:1026F000A1F920680169C943090609D4C168C94321
:10270000090605D46FF0800101612046FFF7C8FE7D
:1027100020680169C943490609D4C168C94349060B
:1027200005D46FF040010161204600F0F1F9206806
:102730000169C94389060BD4C168C943890607D416
:102740006FF0200101612046BDE87040FFF7A9BE8F
:1027500070BD00001FB500680F4B02210322984294
:1027600008D1C014CDE90001039269460B48FEF779
:10277000FBFF1FBD0A4B9842FBD14015CDE900017C
:10278000039269460748FEF7EFFF0748416841F4A6
:10279000406141601FBD0000002C01400008014065
:1027A00000040040001001400000014010B5044644
:1027B00000680649884204D1042205490548FEF70D
:1027C000E1FB21686FF01000086110BD002C014092
:1027D000900000202002002010B50268044631B1AC
:1027E000042908D0082920D00C2908D121E0D0687C
:1027F00040F0020002E0D06840F00400D060012206
:10280000206800F06FFE0D492068884202D00C4914
:10281000884203D1416C41F4004141642068016861
:1028200041F001010160002010BDD06840F00800B7
:10283000E4E7D06840F01000E0E70000002C014021
:102840000034014070B5044690F838000D46012868
:102850000DD0012684F83860022084F8390042B196
:10286000042A18D0082A2AD00C2A4DD139E0022097
:1028700070BD206800F042FE2068816941F00801C7
:1028800081612068816921F004018161206881698A
:102890002A69114311E0206800F060FE2068816918
:1028A00041F4006181612068816921F48061816166
:1028B000206881692A6941EA0221816124E0206857
:1028C00000F082FE2068C16941F00801C161206802
:1028D000C16921F00401C1612068C1692A691143FD
:1028E00011E0206800F0A4FE2068C16941F4006195
:1028F000C1612068C16921F48061C1612068C1693A
:102900002A6941EA0221C1613834667000202070D2
:1029100070BD10B5040003D094F8390010B107E081
:10292000012010BD002084F83800204600F00CF88B
:10293000022084F83900211D206800F091FD01205B
:1029400084F83900002010BD08B5114A016811480B
:10295000914211D1816941F4006181618069002255
:1029600000F40060009011461B20FFF77FF8BDE8DF
:1029700008401B20FFF76EB8074A914207D1C16992
:1029800041F00201C161C06900F00200009008BD81
:10299000002C01400010024000040040704700007D
:1029A00010B504460068012200F09CFD084920682B
:1029B000884202D00749884203D1416C41F400416A
:1029C00041642068016841F001010160002010BDF0
:1029D000002C01400034014010B50446006800227C
:1029E00000F080FD114841F21112216893108142DC
:1029F00002D00F48814209D1086A104206D1086A04
:102A0000184203D1486C20F4004048642068016AF1
:102A1000114206D1016A194203D1016821F0010176
:102A20000160012084F83900002010BD002C014015
:102A3000003401402DE9F047074600682F498842DD
:102A400018D12F49002608468A782E4DC0784FF4B9
:102A50000C79012488469AB100282B484FF00C01CC
:102A60001FD0FFF79DFF00BF88F803604846296824
:102A7000C862E86039686FF001000861BDE8F0875E
:102A8000002821484FF00C0104D0FFF789FF88F897
:102A90000240E9E7FFF7A0FF88F8034041F29410F5
:102AA000E5E7FFF799FFA14688F80390174998F8E2
:102AB00004002B68444631F81020DA6231F8101017
:102AC000E9601F2815D90F48FFF77AFD0E48FFF778
:102AD00077FD84F805902178484619B1E17931B93C
:102AE000E071C7E7E079032801D2401CF8E7E671FE
:102AF000C0E7401C88F80400BCE700000014004058
:102B0000040000206C01002030010020A000002003
:102B10007047704738B5044600680168C26811F014
:102B2000010F02F4807204D01AB1E16B41F001018F
:102B3000E1630168C1F34002416901F0010122B182
:102B400019B1E26B42F00402E2630268C2F3800250
:102B500022B119B1E26B42F00202E2630268C2F3F1
:102B6000C00222B119B1E16B41F00801E1630168D3
:102B7000C068C1F3401100F0200019B110B1204627
:102B800000F0AAFD20680168C068C1F3C01100F020
:102B9000800019B110B1204600F0AAFE2168086833
:102BA000CA68C0F3801002F04002012570B16AB11A
:102BB000CA68204622F04002CA6094F839103229CF
:102BC00011D080F8395000BF00F034F9E06B0028D4
:102BD00008D0206801684068009084F83950204689
:102BE000FFF797FF38BD222180F83910ECE770B568
:102BF000040004D094F83900002510B106E001204B
:102C000070BD84F83850204600F020F8022084F887
:102C100039002068C16821F40051C160204600F0ED
:102C2000AFFD2068016921F490410161206841698C
:102C300021F02A0141612068C16841F40051C1605E
:102C4000E563012084F83900002070BDF0B5064628
:102C50000068214985B088423BD12048816941F410
:102C60008041816180691E4C00F4804004904020C6
:102C70000090022001900320039069462046FEF751
:102C800073FD00258027CDE9007569462046029531
:102C9000FEF76AFD1348416841F004014160134C9E
:102CA0001148211D20601020A1C125616561A56129
:102CB0002046E561FEF748FC08B1FDF73BFE3463B2
:102CC0000022114625206662FEF7D0FE2520FEF781
:102CD000C1FE05B0F0BD0000003801400010024008
:102CE000000C01400000014044000240E8010020C7
:102CF00090F83930012B01D0122B2CD139B332B3DB
:102D000090F83830012B26D0012380F838308162CA
:102D10008285C2850021C16390F83920122A18D01B
:102D20005FF0220280F8392080F838100168CA6804
:102D300042F48072CA6001684A6942F001024A6145
:102D40000068C16841F02001C16000207047012087
:102D500070473222E6E70220704700000F4830B487
:102D60000246817A127B012341B1C17A00F16004ED
:102D70000529625406D2491CC17208E0552A06D1C1
:102D8000837204E000218172C173C17283730349AD
:102D9000012230BC0C310248FFF7AABF040000201A
:102DA000A801002070B5044690F83900012801D030
:102DB000222837D189B382B394F83800012831D062
:102DC000012084F838002162A284E2840025E563B2
:102DD00094F83900222823D05FF0120084F83900DB
:102DE000236B11489862236B1048D862236B1048FC
:102DF000186326681346361D3246206BFEF7CCFB5F
:102E000021686FF0400008602068416941F080014E
:102E1000416184F83850002070BDFFE70120FBE7D6
:102E20003220DBE70220F7E79F360008CD360008A6
:102E300081360008084910B50120487301020022BC
:102E40000648FEF78FFD04490122BDE810400C3111
:102E50000348FFF74DBF000004000020000C0140B4
:102E6000A80100207047FEE730B52B48AA21F023C7
:102E700001702A494C8B44708A8B827003EA1414C7
:102E8000C2F303222244C270CC8A04710A8B4271BD
:102E900003EA1414C2F3032222448271CA8BC27162
:102EA00003EA12141E4A126891F8205002F003023D
:102EB00005F0FC052A440A8402F00F022244027243
:102EC000174A083A1268C2F30B040C82C2F30B4291
:102ED0004A824472827203EA141303EB1222C27212
:102EE0000F4A121F1268CA658A650273130A437378
:102EF000130C8373120EC27300224A8501224C8D7B
:102F0000835C521C2344D2B24B85102AF7D399B26A
:102F10000174090A417430BDE00000200400002063
:102F20000CF8030810B5012211020648FEF71AFD3D
:102F3000FFF79AFFBDE81040122203490348FFF74C
:102F400031BF0000000C0140E0000020A80100207B
:102F5000094910B58A6DD0B200F54C531C02C2F37A
:102F600007231C440344C2F3074000EB0422184427
:102F70004A65887110BD0000040000200D4810B59E
:102F8000816D83790A0E02F558511A44038A0C02A6
:102F9000D9B20C440A44F02101EA1311438AC3F365
:102FA00003231944C9B201EB042311444365817121
:102FB00010BD00000400002009498A7C8B7902F5CD
:102FC00064501A44030291F8200000F00F000344FB
:102FD0001044C0B2887100EB0320486570470000C0
:102FE000040000200A49888B4A8B0005C2F30B02BB
:102FF00002EB1020C0F307220244C0F307431A4437
:10300000C2F30312C03200EB026048657047000053
:10301000040000200A49088BCA8A0005C2F30B028B
:1030200002EB1020C0F307220244C0F307431A4406
:10303000C2F30312903200EB026048657047000053
:103040000400002010B5174A00214FF4D2644FF459
:103050000C73002802DA22F8114001E022F8113046
:10306000491C4000C9B22029F3D30F4900200A6847
:1030700050620B68821E1A610B6842F22832DA62D3
:10308000CA600A498870C87008710948FFF78CFA4D
:103090000C210748FFF784FCBDE810400248FFF709
:1030A00083BA0000A00000206C0100200400002072
:1030B00030010020FEB521481F4900240160891518
:1030C000C0E902144461042505614FF460214460A5
:1030D000C161FDF75DFE08B1FDF72CFC0326012060
:1030E0000096CDE9010469461448FDF7A5FC08B136
:1030F000FDF720FC092000900220019069460F484E
:10310000FDF79AFC08B1FDF715FC0E20CDE900068D
:1031100069460A48FDF790FC08B1FDF70BFC0F204B
:10312000CDE9000569460548FDF786FC002801D079
:10313000FDF700FCFEBD000000240140200200203D
:103140000D4808B5416941F0010141614069002223
:1031500000F00100009011460B20FEF787FC0B20C9
:10316000FEF778FC002211460E20FEF77FFCBDE83A
:1031700008400E20FEF76EBC0010024030B51A4821
:1031800085B0816941F020018161816901F02001F0
:103190000491816941F004018161816901F00401B8
:1031A0000491816941F010018161816901F0100190
:1031B0000491816941F00801816180690B4D00F043
:1031C00008004FF444540490002221462846FEF79C
:1031D000C9FB0120CDE90040032003906946284641
:1031E000FEF7C2FA05B030BD00100240000C0140ED
:1031F00010B5204890B01E490024C0E900144FF4D7
:103200006161C0E9024104614461FFF782FB08B1DA
:10321000FDF790FB0E940EA916480F94FFF763F983
:1032200008B1FDF787FB6020CDE9070409940B94F2
:103230000C940C2207A90F480D94FFF703FB08B16B
:10324000FDF778FB00944FF40050CDE90440019461
:1032500002940394694607480694FFF723F908B1DE
:10326000FDF768FB0348FFF775FA10B010BD0000CA
:10327000002C0140F400002010B517488AB0154911
:10328000016047210024C0E901141A21C0E9031498
:10329000FFF73FFB08B1FDF74DFB079407A90E4868
:1032A0000894FFF720F908B1FDF744FB6020009077
:1032B0000D20CDE901040C22694607480494FFF76C
:1032C000C1FA08B1FDF736FB0348FFF743FA0AB02D
:1032D00010BD000000040040300100201CB50E4865
:1032E0000C49002401604721C0E901144FF40C711E
:1032F000C160FFF720F908B1FDF71CFB0094694697
:1033000005480194FFF7EFF8002801D0FDF712FB04
:103310001CBD0000001400406C0100200C4810B5DA
:103320000A4901604FF416514160002181600C226E
:10333000C160C0E904128161C161FFF758FC002837
:1033400003D0BDE81040FDF7F5BA10BD00380140CC
:10335000A8010020FEE770470907090E002803DADC
:1033600000F00F00024A00E0024A8154704700005A
:1033700014ED00E000E400E07047704710B5FEF780
:10338000FDFABDE81040FFF787B830B595B00120D1
:10339000009000040025CDE901050224CDE9074095
:1033A0004FF4E01009906846FEF766FD00B1FEE7B5
:1033B0000AA90F2031C14FF48060CDE90D0502212B
:1033C0000AA8FEF717FC00B1FEE74FF40040119089
:1033D0000F940FA8FEF77CFB00B1FEE7FEF7CEFCD2
:1033E0004FF47A71B0FBF1F0FFF742F80420FFF7D9
:1033F0000AF800221146501EFEF738FB15B030BD0A
:103400000D48016841F00101016041680B4A11401B
:10341000416001680A4A11400160016821F480217D
:103420000160416821F4FE0141604FF41F01816099
:103430000449C00308607047001002400000FFF814
:10344000FFFFF6FE08ED00E00148FFF7CFB80000EF
:10345000F40000200148FFF7C9B800006C0100200B
:10346000F0B502681A4B1B4D1B4E1C4F1C4C4FF005
:10347000804C984209D0A04207D0604505D0A842B0
:1034800003D0B04201D0B84204D122F0700E4A6895
:1034900042EA0E02984209D0A04207D0604505D00A
:1034A000A84203D0B04201D0B84203D122F4407503
:1034B000CA682A4302608A68C2620A6882629842C5
:1034C00001D0A04201D10969016301214161F0BD30
:1034D000002C01400004004000080040000C0040A7
:1034E0000034014010B50123046A8B409C43046200
:1034F000036A8A401343036210BD0000F0B5026AFC
:1035000022F001020262036A42688469124E24F0CA
:1035100073050C682C4323F002058B682B430D4D7B
:10352000A84201D0B04205D123F00807CB683B4345
:1035300023F00403A84201D0B04205D14D6922F422
:10354000407215438A692A43426084614968416335
:103550000362F0BD002C014000340140F0B5026A66
:1035600022F010020262026A436884690D6824F442
:10357000E64444EA05248D6822F0200242EA05125E
:103580000F4D104EA84201D0B04206D1CF6822F0B4
:10359000800242EA071222F04002A84201D0B04263
:1035A00007D14D6923F4406343EA85038D6943EAFB
:1035B000850343608461496881630262F0BD000055
:1035C000002C014000340140F0B5026A22F4807200
:1035D0000262026A4368C46922F4007224F073052F
:1035E0000C68124E2C438D6842EA05220E4DA8420B
:1035F00001D0B04206D1CF6822F4006242EA07222D
:1036000022F48062A84201D0B04207D14D6923F470
:10361000405343EA05138D6943EA05134360C461CF
:103620004968C1630262F0BD002C014000340140D2
:1036300030B5026A22F480520262046A4268C369A9
:103640000D6823F4E64343EA05238D6824F400540F
:1036500044EA0534084DA84202D0084DA84204D1DE
:103660004D6922F4804242EA85124260C361496892
:103670000164046230BD0000002C014000340140B0
:1036800010B5406A0021C185C184012180F839103C
:10369000C16B41F01001C163FFF73BFA10BD10B5DB
:1036A0000146406A0968096889060CD40021C18472
:1036B00001684A6922F080024A610068C16841F0ED
:1036C0004001C16010BDFFF7B5FB10BD10B5406AE9
:1036D000FFF7C8FB10BD000010B590F83910222983
:1036E00003D0322901D0022010BD8168B1F5805F7E
:1036F00011D00169002901681FD0496801F07F03DA
:10370000816A4A1C82620B70C18D491E0904090C32
:10371000C18518D030E00269816A002A02685268C7
:1037200005D0D2B20A80816A491C8162ECE7C2F3FB
:1037300008020A80816A891CF7E74A68816A4B1C83
:1037400083620A70E0E70168CA6822F02002CA605A
:1037500090F83910322911D00168CA6822F48072B9
:10376000CA6001684A6922F001024A615FF0010102
:1037700080F83910FFF7F2FA002010BD1221F7E7A8
:103780002DE9F041044600680169E26821F44051E6
:10379000114301612169A0680843616908432168F8
:1037A000CA6841F20C639A430243CA6020684169C7
:1037B000A26921F44071114341614C49206864259C
:1037C000322688423CD1FEF7F7FA00EBC00101EB4C
:1037D000001061688900B0FBF1F7FEF7EDFA00EB2D
:1037E000C00101EB00106168B0468900B0FBF1F048
:1037F000B0FBF5F06FF01801484307EB800106EBD2
:103800000110B0FBF5F000F0F006FEF7D5FA00EB82
:10381000C00101EB001061688900B0FBF1F0B0FB62
:10382000F5F006EB0016FEF7C7FA00EBC00101EB5E
:10383000001061688900B0FBF1F7FEF7BDFA3BE0CC
:10384000FEF7A2FA00EBC00101EB001061688900ED
:10385000B0FBF1F7FEF798FA00EBC00101EB0010A6
:103860006168B0468900B0FBF1F0B0FBF5F06FF095
:103870001801484307EB800106EB0110B0FBF5F09F
:1038800000F0F006FEF780FA00EBC00101EB00103B
:1038900061688900B0FBF1F0B0FBF5F006EB0016B3
:1038A000FEF772FA00EBC00101EB001061688900BD
:1038B000B0FBF1F7FEF768FA00EBC00101EB001076
:1038C00061688900B0FBF1F0B0FBF5F06FF0180112
:1038D000484307EB800108EB0110B0FBF5F02168CD
:1038E00000F00F0030448860BDE8F08100380140EE
:1038F00090F83910122903D0322901D002207047E4
:103900008168B1F5805F016A0BD04A1C02620268CF
:1039100009785160C18C491E0904090CC1840ED07C
:1039200017E009880268C1F30801516001690029A4
:10393000016A02D0491C0162ECE7891CFBE70168BF
:10394000CA6822F08002CA600068C16841F0400184
:10395000C1600020704700000148FFF7DBB800009D
:10396000A8010020FEE700001C4810B501681C48B3
:10397000C1F30B02C1F30B43C16502824FF47A64B9
:1039800000214382A24200D90182A34200D9418290
:10399000124A121D12688265104A08321268C26506
:1039A00002F0030202844FF46162028301704170ED
:1039B0000D4B41840B4AC0E91123C0E913238170E8
:1039C000C17001714171C171817101220272018561
:1039D0008172C172C1734173817310BD04F8030811
:1039E000040000206F12833A0000A04030B585B07B
:1039F0000446FDF7A7FE1449002002910090012122
:103A0000CDE9031004A96846FDF7FEFD0F4D002324
:103A100021462A8A0120FDF755FE6A8A0023A11C4F
:103A20000120FDF74FFE0023211D0220AA6DFDF7A6
:103A300049FE2A8C002304F108010120FDF742FE13
:103A4000FDF736FE05B030BD04F803080400002081
:103A500002E008C8121F08C1002AFAD17047704757
:103A6000002001E001C1121F002AFBD170470000B5
:103A7000FDF78CFFFFF789FCFFF780FBFFF760FB8A
:103A8000FFF7B6FBFFF7F8FBFFF728FCFFF712FB89
:103A9000FFF744FCA44DA3484FF07A51E86364203B
:103AA000A8842964E8844FF41B70A882FFF75CFFA8
:103AB00000224FF480719D48FDF754FF012205F16B
:103AC0000C019B48FFF714F99A48FEF76DFD0C2195
:103AD0009848FEF781FE4FF0010ADFF85CB285F8E6
:103AE00005A00024A87A28B1E87B322802D9AC725C
:103AF000EC73EC72A87B002865D08B4A0021012072
:103B0000AC736032135C401C1944C0B2C9B20528C2
:103B1000F8D35079884256D110784B2833D008DC3E
:103B20000F284ED01E280BD02D2817D03C284AD164
:103B300021E05A282DD0692837D0782843D139E0A0
:103B4000D078517800F0F00301EB031129829178CD
:103B500000F00F0001EB002068822FE095F82000B4
:103B60004FF4616100F0FB0040F0080028847148C8
:103B70000068016425E0288C40F00C0028846D4822
:103B8000006804641DE095F8200000F0F30028842C
:103B900017E01079D17801EB0020917801EB00203B
:103BA000517801EB0020A86508E095F8200000F0AE
:103BB000FC0002E0288C40F0030028845F48FFF7F7
:103BC00015FFFFF7AFF9287818B101287DD02C70C8
:103BD00088E7287AF8B16879E8B16C716420FDF75C
:103BE00007FDE87930B1012809D002280CD003285C
:103BF00012D01EE0687A58B1FFF7AAF908E0687A97
:103C000030B1FFF7BBF903E0687A08B1FFF7D4F9E8
:103C1000686DFFF717FA0CE0687A08B1FFF7E2F970
:103C2000686DFFF70FFA687A10B1401E687200E005
:103C30002C72A88CFCF798FC80468946688BFCF7B0
:103C400093FC06460F46E86BFCF7B4FC5A463C4B27
:103C5000FCF70FFC32463B46FCF70BFC42464B465A
:103C6000FCF760FB06460F46E88AFCF77DFC32460F
:103C70003B46FCF7C7FC07D2687818B3022803D983
:103C800085F800A06C706C84688BFCF76DFC0646B0
:103C90000F46E86BFCF78EFC5A46294BFCF7E9FB14
:103CA00032463B46FCF7E5FB06460F46E88AFCF742
:103CB0005BFC32463B46FCF791FC89D26C706C840D
:103CC00010E702E085F801A0DEE7687950B16C7179
:103CD0006420FDF78DFCE879C0B1FFF79BF9686DB2
:103CE000FFF7B0F9E88AC8280BD2687888B10628AF
:103CF00007D92C706C706C84EC7185F805A085F880
:103D000008A0E88AB0F5167FDAD9D7E7FFF76AF995
:103D1000E5E74FF400510548FDF720FE85F801A0C6
:103D2000EFE70000CDCC0C3F04000020000C014068
:103D3000A8010020F4000020C3F5285C04F8030863
:103D40008FC2DD3F000000000000000001020304FC
:103D50000607080900000000010203047C3D00087A
:103D60000000002070000000503A0008EC3D000800
:103D70007000002018060000603A000800000000F3
:103D80000000000000000000000000000000000033
:103D90000000000000000000000000000000000023
:103DA0000000000000000000000000000000000013
:103DB0000000000000000000000000000000000003
:103DC00000000000000000000000000000000000F3
:103DD00000000000000000000000000000000000E3
:0C3DE000000000000000000000A24A04E7
:0400000508000131BD
:00000001FF
