:020000040800F2
:100000008807002045010008D73B00082B3800086E
:10001000D53B000819090008D9420008000000007B
:10002000000000000000000000000000FB3B000892
:10003000510A000800000000F93B0008493C000894
:100040005F0100085F0100085F0100085F01000810
:100050005F0100085F0100085F0100085F01000800
:100060005F0100085F0100085F010008C90900087E
:10007000D50900085F0100085F0100085F01000862
:100080005F0100085F010008550600085F010008D5
:100090005F0100085F0100085F0100085F010008C0
:1000A0005F0100085F0100085F0100085F010008B0
:1000B0001D3D00085F0100085F0100085F010008A6
:1000C0005F0100085F0100085F0100085F01000890
:1000D0005F0100085F0100085F010008CD420008D1
:1000E0005F0100085F0100085F0100085F01000870
:1000F0005F0100085F0100085F0100085F01000860
:100100005F0100085F010008293D00085F01000849
:100110005F0100085F0100085F0100085F0100083F
:100120005F0100085F0100085F0100085F0100082F
:10013000DFF80CD000F07CFA00480047CD430008FF
:10014000880700200648804706480047FEE7FEE78C
:10015000FEE7FEE7FEE7FEE7FEE7FEE7FEE7FEE777
:10016000D53C000831010008202A04DB203A21FA9E
:1001700002F00021704721FA02F3D040C2F12002C0
:1001800091400843194670472DE9FE4F804681EAA9
:100190000300C00F0C46009021F0004123F0004501
:1001A000B8EB0200A94105D24046214690461C46C4
:1001B0000B46024623F00040104347D0270DC7F3FB
:1001C0000A00C3F30A510290401A019040286BDAEA
:1001D000C3F3130040F4801B0098924620B1002323
:1001E000D2EB030A63EB0B0B01985946C0F14002B6
:1001F000504600F09FF906460D4650465946019A72
:1002000000F0A7F910EB08006141002487EA1152C1
:1002100084EAE7731A4340D0009A62B3019A012A34
:100220004FEA075215DC001B61EB02014FF0004260
:1002300002EA0752CDE90042001C41F58011324626
:100240002B4600F0A7F903B0BDE8F08F40462146E9
:10025000F9E7001B61EB0201001C41F58013001857
:100260005B412018A2F5001747EB030140EAD57067
:10027000B6196D4111E06D084FEA360645EAC075C2
:100280004FEA0752001B61EB0201001C41F580118F
:1002900049084FEA30000019514132462B4603B05D
:1002A000BDE8F04F00F067B900980122400000233C
:1002B000D0EB020263EBE073009821464FEAE07452
:1002C000B8EB000061EB0401E9E783F000435BE772
:1002D00081F0004158E72DE9FE4F81EA030404F064
:1002E000004421F0004100944FF0000B23F0004344
:1002F00050EA01045ED052EA03045BD0C3F30A540F
:10030000C1F30A552C44A4F2F3340194A0FB025427
:10031000C1F3130141F48011C3F3130343F48013B9
:1003200001FB024400FB034E840A970A44EA81540D
:1003300047EA8357A4FB076802958D0A05FB0785EA
:100340004FEA932C04FB0C542705029D4FEA0658F4
:1003500047EA1637B5EB08056EEB070C870E920ED1
:1003600047EA811742EA8312A7FB0201B6EB0B01B1
:1003700064EB00042B0D43EA0C335E1844EB1C5075
:10038000DA465146E7FB0201C5F313044FEA0B338B
:1003900043EA14534FEA0432019C43EA0603A4F1F2
:1003A0000C040294009CCDE900B400F0F3F803B013
:1003B000BDE8F08F00200146F9E72DE9F04D81EA14
:1003C000030404F0004B21F0004514464FF0000AEE
:1003D00023F0004150EA050220D054EA01021DD06A
:1003E000C5F30A570246C5F31303C1F31300C1F363
:1003F0000A5640F4801543F48013A7EB0608101B3F
:10040000D64608F2FD3873EB050002D308F1010867
:1004100001E092185B41B8F1000F03DA00200146B9
:10042000BDE8F08D00204FF48011064684460EE0B2
:10043000171B73EB050705D3121B63EB050306437C
:100440004CEA010C49084FEA300092185B4150EA2F
:100450000107EDD152EA030012D082EA040083EAD8
:100460000501084305D0101BAB4106D20122002331
:1004700006E000224FF0004302E06FF0010253104B
:100480001AEB06004CEB085110EB0A0041EB0B0194
:10049000BDE8F04D00F06FB80EB5C10F80EAE07016
:1004A0000844CA07002140F233438DE80E000A4693
:1004B0000B4600F06FF803B000BD0EB540F23341BB
:1004C00002910021CDE900110A460B4600F062F8C6
:1004D00003B000BD30B5041E71F1000404DB4FF021
:1004E0000044404264EB0101141E73F1000405DB7B
:1004F0001C464FF00043524263EB04038B4208BF9B
:10050000824230BD30B5041E71F1000404DB4FF0AF
:100510000044404264EB0101141E73F1000405DB4A
:100520001C464FF00043524263EB0403994208BF5C
:10053000904230BD202A04DB203A00FA02F100206C
:1005400070479140C2F1200320FA03F31943904011
:100550007047202A06DBCB17203A41FA02F043EA23
:10056000E07306E041FA02F3D040C2F1200291406C
:1005700008431946704710B5141E73F1000408DAD9
:10058000401C41F1000192185B411A4301D120F057
:10059000010010BD2DE9F04D92469B4611B1B1FA14
:1005A00081F202E0B0FA80F220329046FFF7C2FFFB
:1005B00004460F4640EA0A0041EA0B0153465A46F8
:1005C000084313D0114653EA010019D0C8F1400284
:1005D0005046FFF7C9FD05460E465046594642466D
:1005E000FFF7A8FF084305D0012004E02046394664
:1005F000BDE8F08D0020054346EAE0762C43374302
:100600000A986305E40AA0EB08000022FD0A44EA08
:1006100047540A3002D500200146E9E701051019C8
:100620006941DDE9084500196941BDE8F04DA2E7DF
:10063000064C074D06E0E06840F0010394E807002F
:1006400098471034AC42F6D3FFF776FDB449000862
:10065000D4490008014800F08FBE0000EC020020E1
:1006600070B5044600688168C943C9071CD1816818
:1006700021F00101816001F0CBFC05460FE000BFD5
:1006800001F0C6FC401B022809D9A06A40F0100006
:10069000A062E06A40F00100E062012070BD2068C5
:1006A0008068C043C007EBD0002070BD10B5014684
:1006B000406A826A12F0500F05D0006A026BBDE8F2
:1006C000104008461047816A41F400718162016858
:1006D0008968C1F3424107290CD1C16851B9816AC7
:1006E00021F480718162816AC90403D4816A41F076
:1006F0000101816200F0AEFD10BD10B5406A816A53
:1007000041F040018162C16A41F00401C16200F020
:1007100032FE10BD10B5406A00F02CFE10BD000086
:10072000F8B500260446009600688168C943C907E9
:1007300028D0816841F001018160134813490068A5
:10074000B0FBF1F000E0401E00900028FBD101F06A
:100750005FFC054611E000BF01F05AFC401B022877
:100760000BD9A06A40F01000A062E06A40F00100DE
:10077000E06284F824600120F8BD20688068C043EE
:10078000C007E9D10020F8BDE800002040420F007A
:1007900030B55F48AA2101700F2141705D494A7848
:1007A0008270D243C2708A780271D24342714C8DFA
:1007B00084718B8DC371F02202EA1414C3F30323F6
:1007C00023440372CC8D44720B8E837202EA14149C
:1007D000C3F303232344C3724B7903734C8E4473D6
:1007E0008B8E8B6683731D0A02EA1333C4F30324D2
:1007F000C573234403740B6F43741C0A84741C0C6C
:10080000C4741B0E0375B1F8403043751B0A837521
:100810004B6FC3751C0A04761C0C44761B0E01F149
:10082000800483766368C3761D0A05771D0C4577BF
:100830001B0E8377A368C3771D0A80F820501D0C18
:1008400080F821501B0E80F82230A38980F82330D5
:100850001B0A80F824300C8F80F825404B8F80F8DD
:10086000263002EA1414C3F30323234480F827300C
:100870008B7980F828304B6E80F829301C0A80F87C
:100880002A401C0C80F82B401B0E80F82C308C8BDF
:1008900080F82D40CB8B80F82E3002EA1414C3F37D
:1008A0000323234480F82F300B8C80F830304C8C9D
:1008B00080F8314002EA1313C4F30324234480F880
:1008C00032308B8C80F83330CC8C80F8344002EAA4
:1008D0001313C4F30324234480F835300B8D80F8C0
:1008E0003630097902EA131201F00F01114480F841
:1008F000371000220621435C491C1A44C9B292B247
:100900003829F8D300F8382F110A417030BD0000A3
:100910004601002000000020FEE7000010B5134A49
:1009200011490020A2F18004C2E90E01B4F86C0064
:100930000F49001F80B2A08608600E494008096870
:1009400088630C4802F0EBF904210A4802F060FCCD
:10095000A07840F06000A07040F6B930A4F84200E2
:100960000020A087A07210BD000049408000002038
:100970002C2C01403802002070B50F4C0025E5708A
:10098000A07800F01F00A0700C48A58500684563A2
:10099000322001F083F90A494FF6FF70A086086003
:1009A000084800688563074802F0C5F9BDE8704053
:1009B0000421044802F062BC00000020B0020020C4
:1009C0002C2C014038020020014800F0B7BE000086
:1009D0001C030020014800F0B1BE0000000200200E
:1009E00010B5046863604368102B036803D09960F6
:1009F0000068C26010BD9A600068C16010BD000050
:100A00001248016E0A0F00218273032A0FD0062AB2
:100A100019D0092A13D00C2A0DD0B0F840104FF687
:100A2000FF72914202D2491CA0F840107047A0F812
:100A3000441000F00FB8A0F8441000F085B8A0F8FA
:100A4000441000F0ADB8A0F844107047000000203A
:100A5000704700002DE9F05F4021394801F0CEFADF
:100A6000384800274FF47A74036E00F18001C3F315
:100A700003628273032A59D0062A5AD0092A5BD00E
:100A8000B0F840204FF6FF739A4202D2521CA0F8F1
:100A90004020826FA24247D28346C06FA04243D219
:100AA0000868A04240D20B69D1F818C0C3F30742CE
:100AB000C3F307269019C41848690CF0FF0AC0F365
:100AC00007410C44C0F307252C4404EB0008CCF389
:100AD0000744A044CCF3072908EB090C0CF0FF0CE9
:100AE000E24521D1CBF874709BF80270DC465FEAD6
:100AF000076819D4DBB203EB012106EB012102EBFD
:100B00000121CCF8641000F0F001000705EB0111A1
:100B1000ACF81C1004EB1050ACF81E008CF80490DC
:100B200047F080008BF80200BDE8F09F87670B61FB
:100B3000B2E7C7674B61ACE70F608B61A9E70000C4
:100B4000001001400000002010B58021124801F083
:100B500055FA1249F022086E00EB102302EA1052F7
:100B600003EB104303F0F003CA739A4209D1C0F3B8
:100B70000B028A84C0F30B30C884002080314860A7
:100B800010BDB1F840004FF6FF729042F8D2401C01
:100B9000A1F8400010BD000000100140000000203E
:100BA00010B54FF48071174801F028FA1648F0226A
:100BB000016E01EB112302EA115203EB114303F022
:100BC000F003C2739A4212D1C1F30B020284C1F343
:100BD0000B31418400F18002002191605268B2F52E
:100BE0007A7F03D2A0F842100121817410BDB0F8C1
:100BF00040104FF6FF729142F8D2491CA0F8401005
:100C000010BD00000010014000000020FEE70000C1
:100C100006490020C8610648016941F004010161EC
:100C2000016941F040010161704700006803002044
:100C300000200240064A0021D16106490A6942F0BB
:100C400002020A614861086940F04000086170478B
:100C50006803002000200240044B0022DA61044AAD
:100C6000136943F00103136101807047680300209A
:100C7000002002400E49C868C2060E4803D5C2696A
:100C800042F00202C261CA68520703D5C26942F04B
:100C90000102C261CA69D20707D0C26942F00402E8
:100CA000C261C86920F00100C8611420C8607047A3
:100CB000002002406803002070B5054601F0A8F945
:100CC0000646114C09E0681C07D025B101F0A0F9D7
:100CD000801BA84201D9032070BDE068C007F2D193
:100CE000E068800601D52020E060E068C00605D4F9
:100CF000E069C00702D1E068400703D5FFF7BAFFFB
:100D0000012070BD002070BD0020024030B5394880
:100D1000AA2101701E214170374901F180054A78EE
:100D20008270D243C2708A7902710B8F43714C8FEB
:100D30008471F02202EA1313C4F303242344C37121
:100D4000B1F846300372B1F84840447202EA131316
:100D5000C4F3032423448372B1F84A40C472B1F847
:100D60004C30037302EA1414C3F303232344437384
:100D7000B1F84E4084738B8EEB61C3731D0A02EA97
:100D80001333C4F303240574234443748B8B83749B
:100D9000CC8BC47402EA1313C4F3032423440375F5
:100DA000B1F850404475B1F85230837502EA14141A
:100DB000C3F303232344C375B1F854400476B1F858
:100DC0005630437602EA1412C3F303231A448276A0
:100DD000098DC176C1F30321017700220421435C10
:100DE000491C1A44C9B292B21D29F8D34277110A9C
:100DF000817730BD80010020000000200E4800F106
:100E00008002418DA0F84610818DA0F84810C18D58
:100E1000A0F84A10018EA0F84C10418EA0F84E1098
:100E2000818ED16130F8201F018681888186C1883A
:100E3000C186018901877047000000201248AA215D
:100E4000124A01704B21417051788170C943C170C1
:100E5000D1790171118E4171C1F303218171918E9C
:100E6000891E9166C1710A0A0272C1F3034141727F
:100E700000220521435C491C1A44C9B2D2B20A2996
:100E8000F8D3827270470000B501002000000020F6
:100E90002DE9F05F3E4C00254FF49670E586E5663F
:100EA000E5713C4E3C4FA0864FF6FF784FF02D0980
:100EB0004FF01E0A4FF4486B80B23060396840082A
:100EC0008863354801F02BFF0421334802F0A0F974
:100ED000322000F0E3FE207AE8B101206072A4F82D
:100EE0003480C6F80080386885632B4801F023FF02
:100EF0000421294802F0C2F9E570A07840F0010011
:100F0000A070A079052803D20520A071FFF776FF15
:100F100084F8079029E0208EE18E884202D9E0868D
:100F2000A18EE16684F807A0584524D984F807907B
:100F3000A4F83480C6F8008038688563164801F04C
:100F4000FAFE0421144802F099F91448A5850068B6
:100F50004563A07840F00100A070A079042803D276
:100F60000420A071FFF74AFFE570A07800F09F0011
:100F7000A070BDE8F09FA08E801C80B2A086B0F566
:100F8000E67F99D9F020E071BDE8F05FFFF7C6BCBD
:100F9000000000202C2C014038020020B00200206C
:100FA0002DE9F05F494C00254FF49670E586E56623
:100FB000E571474E474FDFF820B1A0864FF6FF7826
:100FC0004FF02D094FF4805AA08E306039684008E8
:100FD0008863404801F0A3FE04213E4802F018F95E
:100FE000322000F05BFE207AE8B101206072A4F8A4
:100FF0003480C6F8008038688563364801F09BFE6F
:101000000421344802F03AF9E570A07840F001007C
:10101000A070A079052803D20520A071FFF7EEFE8D
:1010200084F8079029E0208EE18E884202D9E0867C
:10103000A18EE1661E21E171B0F5486F2BD984F8CD
:101040000790A4F83480C6F800803868856321488A
:1010500001F071FE04211F4802F010F91F48A58518
:1010600000684563A07840F00100A070A0790428D2
:1010700003D20420A071FFF7C1FE01225146584659
:1010800000F0C0FFFFF7DAFEBDE8F05F0B22144965
:10109000144802F069BBA08E801C80B2A086B0F517
:1010A000E67F01D9F020E07101225146584600F058
:1010B000A9FFFFF7C3FE0B2209490A4802F054FBBF
:1010C000E079F02880D1BDE8F09F0000000000200A
:1010D0002C2C01403802002000080140B002002002
:1010E000B5010020C001002070470000F8B50025C0
:1010F000009590F82420AE46012A1ED0012280F8E7
:1011000024204A681F244FF47873072A17D20668F0
:10111000776B93FAA3FCBCFA8CFC521E02FB0CFC0E
:1011200004FA0CF4A74393FAA3F3B3FA83F30C681D
:101130005A439440274377632DE00220F8BD0668A8
:101140000D2A14D2376B93FAA3FCBCFA8CFCD21F85
:1011500002FB0CFC04FA0CF4A74393FAA3F3B3FAD2
:1011600083F30C685A4394402743376313E0F76ACC
:1011700093FAA3FCBCFA8CFC0D3A02FB0CFC04FABB
:101180000CF4A74393FAA3F3B3FA83F30C685A431E
:1011900094402743F7620A683823072406680A2A1E
:1011A00014D3F76893FAA3FCBCFA8CFC0A3A02FB4E
:1011B0000CFC04FA0CF4A74393FAA3F3B3FA83F3F9
:1011C0008C685A4394402743F76012E0376993FADA
:1011D000A3FCBCFA8CFC02FB0CFC04FA0CF4A74345
:1011E00093FAA3F3B3FA83F38C685A4394402743EA
:1011F00037610A68102A01D0112A20D1124B0268E7
:101200009A4217D193681B0219D4936843F40003E0
:1012100093600968102912D10C490D4A0968B1FB85
:10122000F2F101EB8101490000E0491E0091002923
:10123000FBD104E0816A41F020018162012580F840
:1012400024E02846F8BD000000240140E80000200A
:1012500040420F002DE9F0474148424C0188C1F35C
:101260000B0161868188C1F30B0161850189C1F39E
:101270000B0121868089C0F30B00E0854843FFF70E
:101280000BF904F18007D7E91623FFF724F8C7E923
:101290000C01A278344EC2F3411200254FF461696B
:1012A0004FF47A68032A0DD1D7E90E23FFF72AF904
:1012B00019D2A08D022801D9801E26E0A5853168AB
:1012C000A08D4863208E404504D931684D630121CB
:1012D0002172A585484504D2607A012801D1657242
:1012E0002572BDE8F087E08D404512D2208EB0F522
:1012F000576F04D2A08D4845E1D2401C05E040451F
:10130000A08D04D20028DAD0401EA085D7E740087F
:10131000FBE7A08D20B1401E80B2A0851428CED25C
:1013200012494FF6FF70A086086011480068856377
:101330000F4801F000FD04210D4801F09FFFA07847
:1013400040F01000A070A079152803D21520A071DC
:10135000FFF754FDE570A07800F01F00A070AEE725
:10136000F000002000000020B00200202C2C0140E2
:10137000380200207047704710B504460068416885
:10138000890626D50168890723D5A16AC90603D431
:10139000A16A41F40071A1628168C1F34241072949
:1013A00010D1E16871B9416821F020014160A06A63
:1013B00020F48070A062A06AC00403D4A06A40F048
:1013C0000100A0622046FFF745FF21686FF0120080
:1013D00008602068416809062ED5016849072BD5A9
:1013E000A16AC90603D4A16A41F40051A1628168CF
:1013F000C1F30231072909D04168490515D4816834
:10140000C1F34241072910D1E16871B9416821F067
:1014100080014160A06A20F48050A062A06AC005EB
:1014200003D4A06A40F00100A0622046FFF75CFEF2
:1014300021686FF00C0008602068416849060DD5EE
:101440000068C0070AD0A06A40F48030A06220463D
:1014500000F0AAF821686FF00100086010BD0000DC
:101460002DE9F04104004FF0000503D0A06A0026EA
:1014700018B108E00120BDE8F081E66284F824603C
:10148000204600F093F82046FFF7EAF80146A06AEC
:10149000C00600D421B1A06A40F01000A0627AE03A
:1014A000A06A20F4885040F00200A0623B48236804
:1014B0008342E06904D1B0F5402F01D14FF4002000
:1014C000022292FAA2F2E768B2FA82F207FA02F274
:1014D000104362684FF4807C1043A268624509D0D3
:1014E000012A07D05FF00002D4F814E0BEF1010F2A
:1014F00002D00AE06246F7E7C7B1A76A47F02007C3
:10150000A762E76A47F00107E7625F6827F4694767
:1015100017435F6023689A68214F3A4002439A60FC
:10152000A268624510D0012A0ED016E04FF4604E3A
:10153000A7699EFAAEFEBEFA8EFE7F1E07FA0EF770
:10154000174347F40062E0E74FF47002256992FA0E
:10155000A2F2B2FA82F26D1E95402268D36A23F499
:1015600070032B43D362226892680E4B1A4082426A
:1015700007D1E662A06A20F0020040F00100A062FC
:101580000AE0A06A20F0020040F01000A062E06AC9
:1015900040F00100E062012108466CE7003C014098
:1015A000FDF7E1FFFE0E1FFF7047000030B5054656
:1015B00000681A4985B088422ED11948816941F4E2
:1015C000007181618069694600F4007004903C20DC
:1015D000009003200190134800F01CFC134C1248AB
:1015E0008021206000206060C4E90201890021613F
:1015F0008900C4E90510E061204600F0FBFA08B15B
:10160000FFF704FB2C62002211461220656200F0F5
:10161000EBFD122000F0DCFD05B030BD00240140E0
:101620000010024000100140080002401C0300208E
:101630002DE9F047894604463B4900683B4F0E1DA3
:101640009046884201D0B84207D1306810F4702F1C
:1016500003D001252846BDE8F08794F8240001282E
:101660000CD0012084F824002046FFF759F805002B
:101670004FF0000004D084F82400EBE70220EAE7F2
:10168000A16A40F60162914341F48071A162216830
:10169000B94218D1326812F4702F14D0A16A41F403
:1016A0008011A1623168490505D5A16A21F4005174
:1016B00041F48051A162A16AC9040AD5E16A21F00E
:1016C0000601E16206E0A26A22F48012A262496881
:1016D000E9E7E06284F82400216A15488862216AFB
:1016E0001448C862216A1448086321686FF0020038
:1016F00008602068816841F48071816021684346F8
:101700004A464C31206A00F09DFA20688168C1F396
:1017100042410729816803D041F48011816099E733
:1017200041F4A001FAE70000002401400028014034
:10173000AD06000815070008FB0600082DE9F05F5C
:101740000446F94AF84DF84EF74F0068DFF8D89391
:10175000DFF8D4A3DFF8D0B3D114783D643E503F16
:101760004FF4000E4FF4004C4FF40028A9F13C094F
:10177000AAF1280AABF1140B904221D9EB4A136865
:10178000A8420FD0B0420FD0B84213D0484513D072
:10179000504513D0584501D1724624E0E34A08323F
:1017A00090423CD108221EE080221CE0DF4A303209
:1017B000904239D10A4616E0624614E0424612E0F1
:1017C000D94A803A1368A842ECD0B042ECD0B84273
:1017D000F0D04845F0D05045F0D05845DCD0D24A42
:1017E0009042DBD10205134279D00268D24312073E
:1017F00075D4026822F008020260CB4A2068904249
:1018000032D9A84219D0B0421DD0B84228D048459C
:1018100023D0504523D058450BD1714620E0C34A10
:101820001C329042C2D1BFE7C04A44329042C5D177
:10183000C2E7BE4A0832904201D1082110E0BB4AFB
:101840001C32904201D180210AE0B84A30329042E5
:1018500006D0B6494431884201D1614600E0414694
:10186000B248001D01602CE0A84214D0B04218D04C
:10187000B84223D048451ED050451ED0584501D10E
:1018800071461BE0904202D14FF0006116E0A74A7A
:101890000832904201D1082110E0A44A1C32904243
:1018A00001D180210AE0A14A3032904206D09F49FE
:1018B0004431884201D1614600E041469A4880386F
:1018C0004160606B40F001006063042084F82100F7
:1018D000002084F82000216B09B120468847924AF5
:1018E000206811154FF4800E4FF4804C4FF480287F
:1018F000904221D98D4A1368A8420FD0B0420FD030
:10190000B84213D0484513D0504513D0584501D1A3
:10191000724624E0854A083290423FD104221EE0FC
:1019200040221CE0814A303290423CD10A4616E007
:10193000624614E0424612E07B4A803A1368A842AD
:10194000ECD0B042ECD0B842F0D04845F0D0504591
:10195000F0D05845DCD0744A9042DBD1C204134227
:1019600075D00268D243520771D40268920603D43C
:10197000026822F0040202606B4A2068904232D969
:10198000A84219D0B0421DD0B84228D0484523D033
:10199000504523D058450BD1714620E0634A1C3294
:1019A0009042BFD1BCE7614A44329042C2D1BFE706
:1019B0005E4A0832904201D1042110E05B4A1C3299
:1019C000904201D140210AE0584A3032904206D07C
:1019D00056494431884201D1614600E041465348AE
:1019E000001D01602CE0A84214D0B04218D0B842CB
:1019F00023D048451ED050451ED0584501D17146D0
:101A00001BE0904202D14FF0806116E0474A083255
:101A1000904201D1042110E0444A1C32904201D18D
:101A200040210AE0414A3032904206D03F494431D9
:101A3000884201D1614600E041463B488038416020
:101A4000112084F82100E16A09B120468847364A0E
:101A5000206851154FF4005C4FF4003E904228D9A5
:101A6000324B1B68A84212D0B04213D0B8421AD0F1
:101A700048451AD050451AD0584502D14FF40018A5
:101A80002AE0DFF8A88008F10808404544D14FF06B
:101A9000020821E04FF020081EE0DFF8908008F1F6
:101AA0003008404544D1884616E0E04614E0F04650
:101AB00012E01D4B803B1B68A842E8D0B042E9D041
:101AC000B842F0D04845F0D05045F0D05845D5D078
:101AD0009042D6D14FF0007813EA080F70D0036817
:101AE000DB439B077FD403689B0603D4036823F082
:101AF000020303602068904239D9A84221D0B04245
:101B000025D0B8422FD048452AD050452AD0584534
:101B100013D14FF4001126E0DFF8108008F11C0803
:101B20004045BAD1B6E70000800002400004024000
:101B3000DFF8B8804045BAD1B7E72C4A3C3A90422A
:101B400001D102210FE0294A283A904201D12021F7
:101B500009E0264A143A904205D02449884201D12E
:101B6000614600E071462148403801602CE0A842FF
:101B700015D0B04219D0B84224D048451ED05045A7
:101B80001FD0584502D14FF400111BE0904202D102
:101B90004FF0007116E0154A3C3A904201D1022103
:101BA00010E0124A283A904201D120210AE00F4A5F
:101BB000143A904206D00D49884202D1614601E0B4
:101BC00011E071460A484160606B6063012084F84F
:101BD0002100002084F82000A16A002903D02046BB
:101BE000BDE8F05F0847BDE8F09F000044040240F4
:101BF0000000024070B520B190F82110002411B10E
:101C000003E0012070BD80F82040022180F82110FF
:101C100003681A6843F6F0718A43D0E90115294335
:101C2000D0E903563543294345692943856929434A
:101C3000C5692943114319604463012180F82110CB
:101C4000002070BD70B5044690F82000012823D014
:101C5000012084F82000022084F821002068056813
:101C600025F0010505602046FEF7BAFE20680168F0
:101C700041F0020101602068016841F00401016047
:101C80002068016841F0080101602068016841F0A6
:101C900001010160002070BD022070BD31B500F06F
:101CA000B7F9044600F0B4F90099001B8842F9D353
:101CB00038BD00002DE9F047054626480F460126AD
:101CC000017E01290FD00121814601762868DFF8C5
:101CD00088804CF25034022808D0A2462046FEF7F5
:101CE000EBFFA8B131E00220BDE8F0872046FEF707
:101CF000E3FF08BB0120FEF78BFF2046FEF7DCFF69
:101D0000D8F81010064621F00401C8F810101CE0A5
:101D10004FF0FF303860AC6811E02046FEF78AFFD4
:101D20005046FEF7C9FFD8F81010060021F0020156
:101D3000C8F8101001D03C6007E004F50064D5E954
:101D4000020100EBC120A042E7D8002189F8181059
:101D50003046C9E7680300200020024003480169BB
:101D600041F0800101610020704700000020024026
:101D70002DE9F05F07461C4888460024017E154681
:101D80001E46012909D00121814601764CF2503AC4
:101D90005046FEF791FF18B122E00220BDE8F09F07
:101DA000012F02D0022F00D00427D346DFF83CA039
:101DB000220128463146FEF7D7F981B208EB4400EC
:101DC000FEF74AFF5846FEF777FFDAF8102022F0B8
:101DD0000102CAF8102018B9641CE4B2BC42E7D36F
:101DE000002289F81820D9E768030020002002406B
:101DF00005480169090605D5044941600449416067
:101E000000207047012070470020024023016745F1
:101E1000AB89EFCD2DE9F84FDFF8B8A100220AF128
:101E2000040B144601274FF00F090BF1040E00BFFD
:101E30000B6807FA04F52B40AB4274D1DFF898C168
:101E40004E68A6EB0C0866452BD00DDC032E34D073
:101E500005DC36B3012E19D0022E2FD11BE0112E36
:101E600016D0122E2AD119E0B8F5881F19D006DC39
:101E7000B8F5803F15D0B8F5801F1FD111E0B8F537
:101E8000001F0ED0B8F5041F18D10AE0CA6815E08B
:101E9000CA68121D12E0CA6808320FE0CA680C3224
:101EA0000CE08A682AB1012A4FF0080203D045618C
:101EB00004E0042202E0056100E00022FF2B01D8CB
:101EC000064601E000F104064FEA840501D9A5F1B8
:101ED0002005D6F800C009FA05F82CEA080C02FA29
:101EE00005F54CEA050CC6F800C04D68ED006AD552
:101EF0003A4DAE6946F00106AE61AD6924F00306C5
:101F000005F001050095364D06EB050CDCF8085090
:101F1000A6074FEA167809FA08F6B543314EB042E3
:101F200002D100261AE04EE02F4EB04201D1012628
:101F300014E02E4EB04201D102260FE02C4EB042EA
:101F400001D103260AE02B4EB04201D1042605E060
:101F5000294EB04201D1052600E0062606FA08F611
:101F60002E43CCF808604D68DAF80060ED03554662
:101F700001D51E4300E09E432E604D68AD0305D59C
:101F8000DBF800601E43CBF8006004E0DBF8005093
:101F90009D43CBF800504D68DEF80060ED027546B9
:101FA00001D51E4300E09E432E604D68AD0205D56D
:101FB000084D0C352E681E432E6004E0054E0C368D
:101FC00035689D433560641C102CFFF431AFBDE8CB
:101FD000F88F0000000401400000111000100240C2
:101FE0000000014000080140000C014000100140C9
:101FF0000014014000180140001C0140C2684A4022
:10200000C26070470AB1016170470904FBE7000034
:102010000148006870470000EC00002010B5040083
:1020200008D02068C168C943C90705D1C068C0434A
:10203000800701D4012010BD607B20B900202073EF
:10204000204600F018F802206073216845F25550D0
:10205000086020684168626821F00701114341600F
:1020600020688168A2686FF30B0111438160012031
:102070006073002010BD70472DE9F0410446007BDD
:1020800001280AD00126267302206073FFF7C0FFE3
:10209000054600274FF47A780BE00220BDE8F08176
:1020A000FFF7B6FF401B404503D903206073277339
:1020B000F4E72068C068C0438007F1D521684AF67C
:1020C000AA200860667327730020E7E7017B0129D7
:1020D0000FD001210222427303684CF6CC421A60F1
:1020E00003684AF6AA221A60417300210173084668
:1020F000704702207047000002480168491C0160D7
:1021000070470000EC000020074810B5016841F05E
:1021100010010160032000F087F8002000F006F8AD
:1021200000F016F8002010BD0020024010B5044653
:1021300000F0E6F94FF47A71B0FBF1F000F08CFD9D
:1021400000222146501E00F04FF8002010BD000074
:102150001D4808B5816941F001018161806900F085
:1021600001000090032000F05FF8002211466FF09C
:102170000B0000F039F8002211466FF00A0000F061
:1021800033F8002211466FF0090000F02DF800220C
:102190001146501F00F028F800221146101F00F0D1
:1021A00023F800221146901E00F01EF8002211466E
:1021B000501E00F019F80548416821F0E06141F037
:1021C0008061416008BD0000001002400000014035
:1021D00000F01F02012191404009800000F1E02041
:1021E000C0F8001170470000F0B40E4B1B680C469D
:1021F000C3F30223C3F10705042D00D90425191DDB
:10220000072901D2002300E0DB1E012606FA05F1B2
:10221000491E214099409E40761E16403143F0BC35
:1022200001F0DABC0CED00E0064900F00702086896
:102230004FF6FF03184040EA0220034A10430860AB
:10224000704700000CED00E00000FA052DE9F843AE
:1022500005460078454CC00774D0E06940F08050D6
:10226000E061E069424E00F080500090306840F438
:1022700080703060FFF7CCFE074604E0FFF7C8FE31
:10228000C01B642833D83068C005F7D5206A10F425
:10229000407051D0A98801F4407181424CD0206A2D
:1022A0000126310491FAA1F2B2FA82F29300314A86
:1022B00020F440701344C3F8006491FAA1F1B1FA1C
:1022C00081F102EB81010023C1F800342062C007D4
:1022D00032D0FFF79DFE074641F288394FF00208E1
:1022E00008E000BFFFF794FEC11B494502D9032057
:1022F000BDE8F88398FAA8F1B1FA81F141F0400104
:102300004046B6EB511F01D121680BE090FAA0F1D5
:10231000B1FA81F141F04001B0EB511F01D1216AC6
:1023200000E0616A98FAA8F0B0FA80F000F01F02AD
:1023300006FA02F00142D5D0206A696820F44070A4
:10234000084320622878800705D56068A96820F4D2
:102350004040084360602878C00605D56068696918
:1023600020F48000084360600020C1E700100240B4
:1023700000700040000042422DE9F047DFF8708114
:1023800005460E46D8F8000000F00700B0420CD217
:10239000D8F8001021F007013143C8F80010D8F830
:1023A000000000F00700B04277D12878514C800738
:1023B00005D56068A96820F0F000084360602878BF
:1023C000C00759D06968012001290DD0022929D000
:1023D0005FF0020393FAA3F2B2FA82F242F0200213
:1023E000520904D0226803E04FF40033F2E7626A36
:1023F00093FAA3F3B3FA83F303F01F039840024266
:102400004BD0606820F0030008436060FFF700FED7
:102410006968074641F2883001290DD002298146BA
:1024200017D025E04FF00073D4E700BFFFF7F0FDB1
:10243000C11B494501D918E081466068C0F381009D
:102440000128F3D118E000BFFFF7E2FDC11B4945A9
:102450000BD86068C0F381000228F5D10CE000BF02
:10246000FFF7D6FDC11B494502D90320BDE8F0871F
:10247000606810F00C0FF3D1D8F80010404601F05E
:102480000701B1420BD9016821F007013143016016
:10249000006800F00700B04201D00120E6E728788C
:1024A000400705D56068E96820F4E0600843606093
:1024B0002878000706D56068296920F4605040EA52
:1024C000C100606000F052F86168F02292FAA2F256
:1024D00001F0F001B2FA82F2D140074A515CC840E3
:1024E000064908600020FFF721FE0020BEE700003B
:1024F00000200240001002409C490008E800002033
:102500000148006870470000E800002008480949B9
:10251000006849684FF4E06292FAA2F201F4E061C7
:10252000B2FA82F2D140044A515CC84070470000C0
:10253000E800002000100240AC49000808480949A2
:10254000006849684FF4605292FAA2F201F46051B7
:10255000B2FA82F2D140044A515CC8407047000090
:10256000E800002000100240AC49000810B519A393
:1025700085B00FCB8DE80F001AA01B4B00680490AC
:102580005A681A4802F00C0104291DD008291BD1F1
:102590004FF4701494FAA4F402F47011B4FA84F4B1
:1025A000E140D2031DF8011010D55A684FF40033F2
:1025B00093FAA3F302F40032B3FA83F3DA4004ABE4
:1025C0009A5CB0FBF2F0484305B010BD08484843A0
:1025D000FAE7000002030405060708090A0B0C0DC0
:1025E0000E0F1010010200000010024000127A00CD
:1025F00000093D002DE9F84F04460078F74DC0076B
:102600004FF0010625D068687704C0F381000128E7
:1026100007D06868C0F3810002281BD16868C00336
:1026200018D597FAA7F0B0FA80F040F020004009E2
:1026300001D0286800E0686A97FAA7F1B1FA81F141
:1026400001F01F0106FA01F108425ED0606800281F
:102650007CD05AE06068B0F5803F0BD010B1B0F587
:10266000A02F11D0286820F480302860286820F43A
:10267000802002E0286840F480302860606828B339
:10268000FFF7C6FC80460BE0286840F480202860F5
:10269000F0E700BFFFF7BCFCA0EB0800642871D88E
:1026A00097FAA7F0B0FA80F040F02000400901D07E
:1026B000286800E0686A97FAA7F1B1FA81F101F0A1
:1026C0001F0106FA01F10842E4D01EE0FFF7A0FC6A
:1026D000804605E0FFF79CFCA0EB08006428DED8EC
:1026E00097FAA7F0B0FA80F040F02000400901D03E
:1026F000286800E0686A97FAA7F1B1FA81F101F061
:102700001F0106FA01F10842E4D12078DFF8D082F7
:1027100080074FF000094FF002075BD568684FF063
:10272000F80B10F00C0F07D06868C0F38100022886
:102730001CD16868C00319D497FAA7F0B0FA80F0EA
:1027400040F02000400902D0286801E08BE0686A70
:1027500097FAA7F1B1FA81F101F01F0106FA01F130
:1027600008422CD0206901287DD128E0206990B34F
:1027700096FAA6F0B0FA80F048F82060FFF748FC1F
:10278000824607E011E100BFFFF742FCA0EB0A0020
:10279000022884D897FAA7F0B0FA80F040F0200021
:1027A000400901D0286800E0686A97FAA7F1B1FAF9
:1027B00081F101F01F0106FA01F10842E4D0286816
:1027C0009BFAABF26169B2FA82F220F0F800914014
:1027D0000843286025E0FFE796FAA6F1B1FA81F1F7
:1027E00048F82190FFF714FC824605E0FFF710FC43
:1027F000A0EB0A000228CCD897FAA7F0B0FA80F034
:1028000040F02000400901D0286800E0686A97FA8B
:10281000A7F1B1FA81F101F01F0106FA01F10842B6
:10282000E4D1207800076ED5A069B8B396FAA6F077
:10283000B0FA80F008EB8000C0F88064FFF7E8FB96
:10284000824605E0FFF7E4FBA0EB0A000228A0D8CF
:1028500097FAA7F0B0FA80F040F06000B6EB501F96
:1028600002D128680CE062E197FAA7F0B0FA80F094
:1028700040F06000B7EB501F01D1286A00E0686AA1
:1028800097FAA7F1B1FA81F101F01F0106FA01F2FE
:102890001042D7D00120FFF701FA34E0FFE796FAA3
:1028A000A6F1B1FA81F108EB8101C1F88094FFF73C
:1028B000AFFB824606E000BFFFF7AAFBA0EB0A00D1
:1028C000022872D897FAA7F0B0FA80F040F06000C2
:1028D000B6EB501F01D128680BE097FAA7F0B0FAC9
:1028E00080F040F06000B7EB501F01D1286A00E093
:1028F000686A97FAA7F1B1FA81F101F01F0106FAAF
:1029000001F21042D8D12078400765D5E86940F03F
:102910008050E861E869DFF8CCB000F080500090AA
:10292000DBF8001041F48071CBF80010FFF770FB6A
:10293000824605E0FFF76CFBA0EB0A00642834D860
:10294000DBF80000C005F5D5E06801280AD008B121
:10295000052813D0286A20F001002862286A20F098
:10296000040002E0286A40F001002862E06841F2B9
:10297000883B90B3FFF74CFB82460BE0286A40F09F
:1029800004002862EEE700BFFFF742FBA0EB0A015C
:1029900059450AD897FAA7F0B0FA80F040F0400005
:1029A000B6EB501F02D128680CE0A3E097FAA7F01D
:1029B000B0FA80F040F04000B7EB501F01D1286A18
:1029C00000E0686A97FAA7F1B1FA81F101F01F02FD
:1029D00006FA02F10842D7D031E005E000100240CB
:1029E0000000424200700040FFF712FB824605E003
:1029F000FFF70EFBA0EB0A0159457BD897FAA7F029
:102A0000B0FA80F040F04000B6EB501F01D12868CA
:102A10000BE097FAA7F0B0FA80F040F04000B7EB77
:102A2000501F01D1286A00E0686A97FAA7F1B1FA4D
:102A300081F101F01F0206FA02F10842D8D1E069E3
:102A400080B36968C1F38101022970D04FF08071B1
:102A50004F000228484609D091FAA1F1B1FA81F15C
:102A600048F82100FFF7D4FA044669E08A4691FA53
:102A7000A1F1B1FA81F1C14648F82100FFF7C8FA87
:102A8000804605E0FFF7C4FAA0EB0800022854D8FE
:102A900097FAA7F0B0FA80F040F02000400902D089
:102AA000286801E061E0686A97FAA7F1B1FA81F15C
:102AB00001F01F0106FA01F10842E3D1206AB0F5E6
:102AC000803F05D16868A16820F400300843686041
:102AD000D4E908010843696821F474110843686067
:102AE0009AFAAAF0B0FA80F049F82060FFF790FA5D
:102AF000044606E021E000BFFFF78AFA001B022827
:102B00001BD897FAA7F0B0FA80F040F020004009F7
:102B100001D0286800E0686A97FAA7F1B1FA81F15C
:102B200001F01F0106FA01F10842E5D01DE01EE0A8
:102B3000FFF76EFA001B022802D90320BDE8F88FC8
:102B400097FAA7F0B0FA80F040F02000400901D0D9
:102B5000286800E0686A97FAA7F1B1FA81F101F0FC
:102B60001F0106FA01F10842E2D10020E6E7012048
:102B7000E4E74FF0E0210428086903D020F00400C6
:102B80000861704740F00400FAE7000030B53148B2
:102B90000021827D52B1427DFF2A07D2521CD2B25F
:102BA0004275322A02D981754175C175B0F8442049
:102BB0004FF6FF739A4202D2521CA0F84420B0F89C
:102BC0005A209A4210D2521C92B241F28835012406
:102BD000A0F85A20AA4200D9447642F21075AA42BF
:102BE00002D9A0F85A10847684781A4914F0600F3C
:102BF00001F1800118D1426F551C01D0521C42676F
:102C0000826F551C01D0521C8267C26F551C01D0C7
:102C1000521CC2670A68551C01D0521C0A604A68DF
:102C2000551C01D0521C4A60C4F34112032A10D132
:102C30004A68541C01D0521C4A608A68541C01D056
:102C4000521C8A60B0F84210994202D2491CA0F886
:102C5000421030BD0000002010B5401EB0F1807F52
:102C600001D3012010BD4FF0E02460610F216017F7
:102C700000F0B2FF0020A06107202061002010BDFD
:102C800010B5FFF783FF10BD7047704730B590F85F
:102C90003820012A19D0012200F8382F022343706E
:102CA000D1E900342343D1E902452C4323430C6985
:102CB00023434C69896923430B4350F8381C4B6408
:102CC000427000210170084630BD022030BD30B591
:102CD00090F83820012A20D0012280F838200223E1
:102CE00080F8393003685C6824F070045C60036825
:102CF0005C680D682C435C6003689C6824F0800469
:102D00009C6003689C6849680C439C6080F839208B
:102D1000002180F83810084630BD022030BD01681F
:102D2000CA6842F00102CA600068016841F001010E
:102D30000160002070470168CA6822F00102CA6081
:102D40000068016A41F21112114207D1016A921022
:102D5000114203D1016821F0010101600020704798
:102D6000F0B50268B2F1804F65D1D168C9438907D7
:102D700061D4314900240B464E7B1B7B002E166A22
:102D80004FF6F57506EA050616620268156A09D05F
:102D900045F0020515620268546243F010020A739E
:102DA0004C7344E0156201274F73DA063FD523F0D8
:102DB00010030B730268526A204D0E7892B225F808
:102DC00016201D0628D51C4CA2F2911CE56D247816
:102DD0006D00641CE4B2BCF5C77F0CD8202E26D24F
:102DE000CD650C70202C22D323F0800242F04002EB
:102DF0000A730D661BE0A2F2E93C40F21F3EF44567
:102E000003D2202E13D26D1CEAE70F744E74CA87CA
:102E100023F080020A730AE040F2E735A2F6A172BD
:102E2000AA4204D243F080020A730C70CC65006899
:102E30006FF010010161F0BD0000002000010020D2
:102E40002DE9F041044690F838000D4601283DD0A8
:102E5000012684F83860022084F83900AAB3042AD5
:102E600046D02068082A55D0D5E90027E968036ACA
:102E700023F480530362D0F81CC0036A2CF4407C16
:102E80004CEA07274FF6FF7C27F470470CEA013124
:102E900039434FF4204723F4204307EA02321A4310
:102EA000C16102622068C16921F44061C16120688A
:102EB000C169AA6841EA0221C0F81C1084F839608F
:102EC000002084F83800BDE8F08101E00220FAE734
:102ED000D5E90012EB68206801F03CF820688169B0
:102EE00021F00C01816120688169AA6811430FE01B
:102EF000D5E90012EB68206801F062F8206881696A
:102F000021F44061816120688169AA6841EA022157
:102F10008161D3E7D5E9002C2F7B016A21F4807110
:102F20000162C169036A21F0030141EA0C0121F049
:102F3000F00C39074FF420674CEA116123F4206349
:102F400007EA02221A43C16102622068C16921F0C6
:102F50000C01C1612068C169AA681143ACE710B5D2
:102F6000040003D094F8390010B107E0012010BD2F
:102F7000002084F83800204600F00CF8022084F885
:102F80003900211D206800F0D5FE012084F83900A9
:102F9000002010BD00B5006885B0B0F1804F21D190
:102FA0001148C16941F00101C161C069694600F081
:102FB000010004904FF40040009000200190029026
:102FC0000A48FEF727FF0A48416821F4407141F49E
:102FD00080714160002211461C20FFF705F91C207A
:102FE000FFF7F6F805B000BD0010024000080140F0
:102FF0000000014010B50268044631B1042908D030
:10300000082915D00C2908D116E0D06840F002003C
:1030100002E0D06840F00400D0600122206800F097
:10302000CBFE2068016841F001010160002010BD65
:10303000D06840F00800EFE7D06840F01000EBE700
:1030400070B50446006801694FF00005C94389075F
:1030500015D4C168C943890711D4E91E0161012053
:103060002076206880698007204602D0FFF778FE2E
:1030700004E000F0B7F8204600F0F2F92576206869
:103080000169C943490717D4C168C943490713D423
:103090006FF004010161022020762068806910F43D
:1030A000407F204602D0FFF75BFE04E000F09AF874
:1030B000204600F0D5F9257620680169C943090743
:1030C00016D4C168C943090712D46FF00801016121
:1030D000042020762068C0698007204602D0FFF7D0
:1030E0003FFE04E000F07EF8204600F0B9F92576B6
:1030F00020680169C943C90617D4C168C943C90614
:1031000013D46FF010010161082020762068C06997
:1031100010F4407F204602D0FFF722FE04E000F0CA
:1031200061F8204600F09CF9257620680169C943C2
:10313000C90708D1C168C943C90704D1891E016103
:10314000204600F08FF920680169C943090609D4B7
:10315000C168C943090605D46FF0800101612046AA
:10316000FFF792FD20680169C943490609D4C16887
:10317000C943490605D46FF040010161204600F0C3
:103180009BF920680169C94389060BD4C168C9430A
:10319000890607D46FF0200101612046BDE8704028
:1031A000FFF773BD70BD00001FB50B4B0268022115
:1031B0000A489A4203D14215CDE9002106E0084BA6
:1031C0009A4207D10122CDE90021032103916946EA
:1031D000FEF720FE1FBD0000002C0140000801404A
:1031E000000C004010B5044600680649884204D12E
:1031F000042205490548FEF71BFA21686FF002001A
:10320000086110BD000C0040F0000020EC0200201E
:1032100010B50268044631B1042908D0082920D02D
:103220000C2908D121E0D06840F0020002E0D0680B
:1032300040F00400D0600122206800F0BDFD0D497F
:103240002068884202D00C49884203D1416C41F485
:10325000004141642068016841F0010101600020E3
:1032600010BDD06840F00800E4E7D06840F01000DE
:10327000E0E70000002C01400034014010B5026876
:10328000044631B1042908D008292FD00C2908D1CF
:1032900030E0D06820F0020002E0D06820F00400A6
:1032A000D0600022206800F087FD144841F211131D
:1032B00021689A10814202D01148814209D1086ADE
:1032C000184206D1086A104203D1486C20F400402D
:1032D00048642068016A194206D1016A114203D18B
:1032E000016821F001010160002010BDD06820F0CC
:1032F0000800D5E7D06820F01000D1E7002C01408D
:103300000034014070B5044690F838000D4601289D
:103310000DD0012684F83860022084F8390042B1CB
:10332000042A18D0082A2AD00C2A4DD139E00220CC
:1033300070BD206800F04CFD2068816941F00801F3
:1033400081612068816921F00401816120688169BF
:103350002A69114311E0206800F06AFD2068816944
:1033600041F4006181612068816921F4806181619B
:10337000206881692A6941EA0221816124E020688C
:1033800000F08CFD2068C16941F00801C16120682E
:10339000C16921F00401C1612068C1692A69114332
:1033A00011E0206800F0AEFD2068C16941F40061C1
:1033B000C1612068C16921F48061C1612068C1696F
:1033C0002A6941EA0221C16184F83960002084F849
:1033D000380070BD10B5040003D094F8390010B166
:1033E00007E0012010BD002084F83800204600F0DE
:1033F0000DF8022084F83900211D206800F09AFCA5
:10340000012084F83900002010BD000008B5114AE1
:1034100001681148914208D1816941F400618161DC
:10342000806900F40060009008BD0C4A9142FBD115
:10343000C16941F00801C161C069002200F00800C3
:10344000009011463220FEF7CFFEBDE80840322042
:10345000FEF7BEBE002C014000100240000C0040F0
:103460007047000030B50368B3F1804F1DD1D968B3
:10347000C943C90719D10F4A117B21F0900111737B
:103480001C6A4FF6F5752C401C6203681C6A1C62AE
:10349000012353730023137001F00F030E2B01D28D
:1034A000491C01E001F0F001117300686FF00101A7
:1034B000016130BD000000207047704790F839006E
:1034C0007047000038B5044600680168C26811F012
:1034D000010F02F4807204D01AB1E16B41F00101D6
:1034E000E1630168C1F34002416901F0010122B1C9
:1034F00019B1E26B42F00402E2630268C2F3800297
:1035000022B119B1E26B42F00202E2630268C2F337
:10351000C00222B119B1E16B41F00801E163016819
:10352000C068C1F3401100F0200019B110B120466D
:1035300000F08CFD20680168C068C1F3C01100F084
:10354000800019B110B1204600F08CFE2168086897
:10355000CA68C0F3801002F04002012570B16AB160
:10356000CA68204622F04002CA6094F83910322915
:1035700011D080F8395000BF00F03EF9E06B002810
:1035800008D0206801684068009084F839502046CF
:10359000FFF793FF38BD222180F83910ECE770B5B2
:1035A000040004D094F83900002510B106E0012091
:1035B00070BD84F83850204600F020F8022084F8CE
:1035C00039002068C16821F40051C160204600F034
:1035D00091FD2068016921F49041016120684169F1
:1035E00021F02A0141612068C16841F40051C160A5
:1035F000E563012084F83900002070BD70B50646EF
:103600000068234986B0884240D12248C16941F40C
:103610008021C161C069204C00F4802004904FF4E7
:1036200080600090022001900320039069462046AC
:10363000FEF7F0FB0025E014CDE9000569462046C1
:103640000295FEF7E7FB1548416821F0300141F093
:1036500010014160134C124820601020C4E901059C
:103660008020C4E903056561A5612046E561FEF798
:10367000C1FA08B1FDF7CAFA3463002211462720C7
:103680006662FEF7B1FD2720FEF7A2FD06B070BD11
:1036900000480040001002400010014000000140BE
:1036A0001C0002400002002090F83930012B01D0AC
:1036B000122B2CD139B332B390F83830012B26D0ED
:1036C000012380F8383081628285C2850021C16380
:1036D00090F83920122A18D05FF0220280F83920A1
:1036E00080F838100168CA6842F48072CA600168C4
:1036F0004A6942F001024A610068C16841F0200154
:10370000C16000207047012070473222E6E70220A6
:1037100070470000124830B40246817D127E0123BA
:1037200041B1C17D00F1A4040729625406D2491CAD
:10373000C1750EE0552A0CD183750AE00021817510
:103740004175C175817811F0600101D0602900D107
:1037500003750349012230BC18310248FFF7A4BFAA
:1037600000000020C001002070B5044690F8390028
:10377000012801D0222836D181B37AB394F83800D9
:10378000012830D0012084F838002162A284E2842C
:103790000025E56394F83900222822D05FF012005A
:1037A00084F83900236B11489862236B1048D86263
:1037B000236B1048186326681346321D206BFEF7F2
:1037C00041FA21686FF0400008602068416941F0CB
:1037D0008001416184F83850002070BDFFE701206E
:1037E000FBE73220DCE70220F7E700001540000885
:1037F00043400008F73F0008084910B50120C8748D
:10380000010300220648FEF7FDFB04490122BDE842
:10381000104018310348FFF747BF000000000020A8
:1038200000080140C00100207047FEE71148AA21AE
:1038300001703C21417010494A788270D243C270B5
:103840008A8B0271C2F303224271CA8B8271C2F366
:103850000322C27149790172C943417200220421D5
:10386000435C491C1A44C9B2D2B20829F8D3827207
:1038700070470000AA010020000000203EB521484A
:103880001F49002401608915C0E902144461042520
:1038900005614FF460214460C161FDF7E1FD08B1AD
:1038A000FDF7B4F90C2000900120CDE90104694630
:1038B0001448FDF71BFC08B1FDF7A8F90D20009096
:1038C0000220019069460F48FDF710FC08B1FDF792
:1038D0009DF90E2000900320019069460948FDF7EC
:1038E00005FC08B1FDF792F90F20CDE90005694606
:1038F0000448FDF7FBFB002801D0FDF787F93EBD2A
:1039000000240140EC0200200D4808B5416941F057
:10391000010141614069002200F001000090114660
:103920000B20FEF761FC0B20FEF752FC0022114633
:103930000C20FEF759FCBDE808400C20FEF748BCFF
:10394000001002402DE9F047334886B0816941F00C
:1039500020018161816901F020010491816941F0B8
:1039600010018161816901F010010491816941F0C8
:1039700004018161816901F004010491816941F0D0
:10398000080181618069DFF8948000F008004FF43D
:1039900070450490002229464046FEF733FBDFF8CD
:1039A00080904FF4E074002221464846FEF72AFB3F
:1039B000DFF870A04FF48057002239465046FEF7DA
:1039C00021FB009501250326694640460396019593
:1039D000FEF720FA694648460396CDE90045FEF712
:1039E00019FA00246802CDE90004694648460294A9
:1039F000FEF710FA2802CDE9000469465046029409
:103A0000FEF708FACDE90075694650460396FEF7C1
:103A100001FA06B0BDE8F08700100240000C01403A
:103A20000010014000080140094810B50749016035
:103A30000421416040F6FF718160FEF7EFFA002833
:103A400003D0BDE81040FDF7E1B810BD00300040E4
:103A50005403002010B5204890B01E490024C0E94E
:103A600000144FF46161C0E9024104614461FFF751
:103A7000B1FC08B1FDF7CAF80E940EA916480F94D0
:103A8000FFF725F908B1FDF7C1F86020CDE9000482
:103A90000294039404940594042269460E48069403
:103AA000FFF730FC08B1FDF7B1F8079408940994CA
:103AB0004FF400500A94CDE90B4007A906480D9435
:103AC000FFF7E4F808B1FDF7A1F80348FFF76CFB36
:103AD00010B010BD002C01403802002010B516486F
:103AE00086B04FF08041016047210024C0E90114F5
:103AF00042F21071C0E90314FFF731FA08B1FDF783
:103B000085F8049404A90C480594FFF7E0F808B17F
:103B1000FDF77CF80120CDE900400320CDE902400B
:103B2000002269460448FFF78BF9002801D0FDF711
:103B30006DF806B010BD00007402002010B51648E4
:103B40008AB014490024C0E900144FF46161C0E94F
:103B500002410461FFF73EFC08B1FDF757F80794F6
:103B600007A90D480894FFF7B2F808B1FDF74EF821
:103B70006020CDE9000402940022694606480494BE
:103B8000FFF7C0FB08B1FDF741F80348FFF70CFB56
:103B90000AB010BD000C0040B00200200C4810B567
:103BA0000A4901604FF416514160002181600C22E6
:103BB000C160C0E904128161C161FFF7F0FC002817
:103BC00003D0BDE81040FDF721B810BD004800400B
:103BD000C0010020FEE770470907090E002806DA39
:103BE00000F00F0000F1E02080F8141D704700F194
:103BF000E02080F800147047704770471048AA21F1
:103C000001702D2141700F494A788270D243C270F1
:103C10008A780271D2434271496E81710A0AC27177
:103C20000A0C0272090E417200220621435C491CF3
:103C30001A44C9B2D2B20A29F8D38272704700007E
:103C40009F0100200000002010B5FEF755FABDE8E6
:103C50001040FFF715B830B595B00920009001214C
:103C60004FF4803000250691CDE901050224CDE90D
:103C700007404FF4E01009906846FEF7BBFC00B126
:103C8000FEE70AA90F2081E831004FF48060CDE9FA
:103C90000D0502210AA8FEF76FFB00B1FEE74FF405
:103CA000004011900F940FA8FEF7D0FA00B1FEE784
:103CB000FEF726FC4FF47A71B0FBF1F0FEF7CCFF73
:103CC0000420FEF756FF00221146501EFEF78CFA24
:103CD00015B030BD0D48016841F001010160416837
:103CE0000B4A1140416001680A4A114001600168B5
:103CF00021F480210160416821F4FE0141604FF40C
:103D00001F0181600449C003086070470010024031
:103D10000000FFF8FFFFF6FE08ED00E00148FFF7A6
:103D20008FB90000740200200148FFF789B9000034
:103D3000B0020020F0B502681A4B1B4D1B4E1C4F01
:103D40001C4C4FF0804C984209D0A04207D06045EF
:103D500005D0A84203D0B04201D0B84204D122F02D
:103D6000700E4A6842EA0E02984209D0A04207D07B
:103D7000604505D0A84203D0B04201D0B84203D17B
:103D800022F44075CA682A4302608A68C2620A68DF
:103D90008262984201D0A04201D1096901630121E8
:103DA0004161F0BD002C01400004004000080040CB
:103DB000000C00400034014010B50123046A8B4020
:103DC0009C430462036A8A401343036210BD0000EF
:103DD000F0B5026A22F001020262036A4268846955
:103DE000124E24F073050C682C4323F002058B68F7
:103DF0002B430D4DA84201D0B04205D123F0080756
:103E0000CB683B4323F00403A84201D0B04205D164
:103E10004D6922F4407215438A692A4342608461E5
:103E2000496841630362F0BD002C01400034014049
:103E3000F0B5026A22F010020262026A43688469E5
:103E40000D6824F4E64444EA05248D6822F020023B
:103E500042EA05120F4D104EA84201D0B04206D1E1
:103E6000CF6822F0800242EA071222F04002A84204
:103E700001D0B04207D14D6923F4406343EA850382
:103E80008D6943EA85034360846149688163026206
:103E9000F0BD0000002C014000340140F0B5026A82
:103EA00022F480720262026A4368C46922F40072DA
:103EB00024F073050C68124E2C438D6842EA0522EB
:103EC0000E4DA84201D0B04206D1CF6822F4006264
:103ED00042EA072222F48062A84201D0B04207D110
:103EE0004D6923F4405343EA05138D6943EA0513F2
:103EF0004360C4614968C1630262F0BD002C0140A7
:103F00000034014030B5026A22F480520262046A31
:103F10004268C3690D6823F4E64343EA05238D68CC
:103F200024F4005444EA0534084DA84202D0084D58
:103F3000A84204D14D6922F4804242EA85124260CF
:103F4000C36149680164046230BD0000002C014077
:103F50000034014070B5046A24F0010404628469ED
:103F6000056A124EB0420ED0114EB0420BD0B0F1E5
:103F7000804F08D00F4EB04205D00F4EB04202D055
:103F80000E4EB04203D124F00304144301E044F088
:103F900001041A0724F0F00444EA126225F00A032F
:103FA00001F00A0119438261016270BD002C0140D9
:103FB000003401400004004000080040000C0040B4
:103FC00030B5046A24F0100404628469056A24F49C
:103FD000407444EA022222F470444FF6FF7202EA6F
:103FE00003322243A02425F0A00304EA011119435F
:103FF0008261016230BD10B5406A0021C185C18473
:10400000012180F83910C16B41F01001C163FFF745
:1040100054FA10BD10B50146406A0968096889065E
:104020000CD40021C18401684A6922F080024A61EF
:104030000068C16841F04001C16010BDFFF7DCFBC2
:1040400010BD10B5406AFFF7EFFB10BD10B590F83A
:104050003910222903D0322901D0022010BD8168F5
:10406000B1F5805F11D00169002901681FD049684E
:1040700001F07F03816A4A1C82620B70C18D491E68
:104080000904090CC18518D030E00269816A002A50
:104090000268526805D0D2B20A80816A491C8162E6
:1040A000ECE7C2F308020A80816A891CF7E74A68D4
:1040B000816A4B1C83620A70E0E70168CA6822F0DB
:1040C0002002CA6090F83910322911D00168CA68FC
:1040D00022F48072CA6001684A6922F001024A61D2
:1040E0005FF0010180F83910FFF714FB002010BDCC
:1040F0001221F7E72DE9F041044600680169E26802
:1041000021F44051114301612169A06808436169AC
:1041100008432168CA6841F20C639A430243CA60AB
:1041200020684169A26921F44071114341614C4901
:1041300020686425322688423CD1FEF7FFF900EB67
:10414000C00101EB001061688900B0FBF1F7FEF7D8
:10415000F5F900EBC00101EB00106168B046890081
:10416000B0FBF1F0B0FBF5F06FF01801484307EB3E
:10417000800106EB0110B0FBF5F000F0F006FEF751
:10418000DDF900EBC00101EB001061688900B0FBB4
:10419000F1F0B0FBF5F006EB0016FEF7CFF900EBFF
:1041A000C00101EB001061688900B0FBF1F7FEF778
:1041B000C5F93BE0FEF7AAF900EBC00101EB0010E6
:1041C00061688900B0FBF1F7FEF7A0F900EBC001D0
:1041D00001EB00106168B0468900B0FBF1F0B0FB64
:1041E000F5F06FF01801484307EB800106EB011072
:1041F000B0FBF5F000F0F006FEF788F900EBC00127
:1042000001EB001061688900B0FBF1F0B0FBF5F044
:1042100006EB0016FEF77AF900EBC00101EB001087
:1042200061688900B0FBF1F7FEF770F900EBC0019F
:1042300001EB001061688900B0FBF1F0B0FBF5F014
:104240006FF01801484307EB800108EB0110B0FB49
:10425000F5F0216800F00F0030448860BDE8F0817F
:104260000038014090F83910122903D0322901D0CA
:10427000022070478168B1F5805F016A0BD04A1C4B
:104280000262026809785160C18C491E0904090C58
:10429000C1840ED017E009880268C1F3080151609B
:1042A00001690029016A02D0491C0162ECE7891CFE
:1042B000FBE70168CA6822F08002CA600068C16832
:1042C00041F04001C1600020704700000148FFF745
:1042D000F9B80000C0010020FEE70000194810B541
:1042E0000068194AC1B265231062A2F18000C82992
:1042F000417025D821B3082181700121417300212B
:10430000134CC175114BC2E91634134C114BC2E961
:10431000183481878172114CC172C2E91414A0F85B
:104320005A1081760E4A41768185126851634FF6A4
:10433000FF7282860B4802600B480068816310BDE3
:104340004370D8E700F8030880000020285998CF70
:104350000369003FF168E388B5F8F43E0000694066
:10436000B00200202C2C01403802002010B586B08D
:104370000446FDF73DFD0B4900200291009001210C
:10438000CDE9031004A96846FDF794FC0648002314
:10439000214642780120FDF7EBFCFDF7DFFC06B07B
:1043A00010BD000000F803080000002002E008C86B
:1043B000121F08C1002AFAD170477047002001E09F
:1043C00001C1121F002AFBD1704700001CB5FDF788
:1043D0009BFEFFF740FCFFF7B5FAFFF795FAFFF7F2
:1043E0004DFAFFF7DBFBFFF7A9FBFFF777FBFFF7C2
:1043F00031FBFFF719FBFFF771FFFE48FEF78FFC5B
:104400000021FC48FEF7F6FDFB48FEF788FC002182
:10441000F948FEF7FDFE0120FDF740FCDFF8DCB3B4
:104420004FF4805A002251465846FDF7EBFD012219
:10443000F349F448FFF738F9F348FDF747FEF04C2D
:1044400000254FF461684FF47A7940F6B837683444
:10445000EB4E183EB07D28B1707D322802D9B5757B
:104460007575F575707EC8B17576E648FFF726F864
:10447000012809D0E348FFF721F8C8B1E148FFF768
:104480001DF8042814D009E0002251465846FDF7D3
:10449000B9FD0122DA49DB48FFF706F9B07EB0B179
:1044A000B576708EB0F5617F05D90020D7490CE054
:1044B000FFF774FBE8E7FCF700F8D54AD54BFBF7AC
:1044C0000AFF0022D44BFBF700FFC4E91401307D42
:1044D00000287DD04021D148FDF790FD0120FDF757
:1044E000DDFBC74935758C314878C043C2B24A708C
:1044F000087890426CD1727890426AD188783C28D2
:1045000055D006DC0F2851D01E2809D02D285FD1A8
:104510004AE04B287ED05A287DD0692858D19FE0A8
:10452000002203200B5C401C1A44C0B2D2B2072800
:10453000F8D3C87990424BD14879CA7800F0F0039B
:1045400002EB031232870A7900F00F0002EB002021
:10455000708788797071B078010639D510F0600FD6
:1045600036D100F0F800B070B179102900D2B571E1
:10457000B587F18DB9420BD940F01000B070B07919
:10458000152803D21520B071FCF738FCF57001E056
:104590000120F070012251465846FDF733FDFFF728
:1045A00045F90B229E4969E0FCF7E6F95CE0B0783A
:1045B00010F0600F65D10A79D243D2B20A71CB787C
:1045C00093425ED191F805C08A790CEB020301E0B9
:1045D0002FE085E0C979DBB2994252D10CEB022180
:1045E000854A89B2B1851268516300F0BF0040F07E
:1045F0002000B070FCF7D4FC7F48B58500684563A7
:1046000088494FF6FF70B086086087480068856368
:10461000854801E00EE018E0FEF78DFB042182489A
:10462000FEF72CFE3220FDF739FBB07800F09F003A
:10463000B07026E0012251465846FDF7E3FCFCF736
:10464000A7F877493A22643918E0FCF75FFB0122AA
:1046500051465846FDF7D6FC71491F222A390DE014
:10466000B07800F0F700B070012251465846FDF7CF
:10467000C9FCFFF7C3FA6A490B220B396148FFF7FF
:1046800073F8317B48060BD5306F421C01D0401CBB
:104690003067A6F8445021F040003073FCF7B0F9C1
:1046A000307C28B13574E068411C01D0401CE060CA
:1046B000716F42F21070814203D9B07800F07F0030
:1046C000B070B6F844104EF66020814203D93567C9
:1046D000A6F84050E560B078000612D5012211E03E
:1046E000FF28CED1C878C043C0B2C8708978814253
:1046F000C7D17170C82900D975704C48FFF736FED4
:10470000B2E700224FF400414948FDF77BFCB07846
:1047100010F0600102D0602906D131E00021C4E927
:104720000E11C10601D5F57021E101061BD5F17806
:10473000002918D0318FB28B914215D1728FF18B35
:104740008A4211D12C494FF4C870B085096848637A
:104750003220FDF7A3FAB07800F0DF0040F040000F
:10476000B070FCF795FB02E1F57040F00400B0700A
:10477000B0790A2803D20A20B071FCF73FFBF6E0BB
:10478000B6F84210B94271D2B07C00286FD0B5742F
:10479000708C404528D1B08BB18C6438814255DA99
:1047A000F08CF18BB0EB910F02D20022214B0CE088
:1047B000B0EB510F02D200221F4B06E0A1F5FA71B7
:1047C000884243DA00224FF08043D4E90E01FBF720
:1047D000DBFCC4E90E01D4E91423FBF793FE03D2FA
:1047E000D4E91401C4E90E01708C40454FD249460A
:1047F000884223E074020020B0020020000801403B
:1048000018000020C001002054030020000069406F
:104810001D5A643BDF4FD53F000059400010014056
:10482000AA0100202C2C01403802002000F80308C7
:10483000000C0140000024400000144009D24E4802
:10484000B1850068416300224C4B12E000224C4BC2
:10485000BBE7B0F5FA6F02D200224A4B09E0B8423A
:104860004FF0000204D24FF0804302E06AE07EE0A5
:10487000434BD4E90E01FBF728FD0022C4E90E01E9
:104880001346FBF727FE02D20020C4E90E00B08BCE
:10489000B18CFA3881421DDDF08BFBF70EFE3A4AEF
:1048A0003A4BFBF718FDCDE90001F08CFBF705FE54
:1048B000DDE90023FBF70EFE0CD2B08F642802D294
:1048C000401CB08707E0B07840F00200B070FCF701
:1048D00053F800E0B587B08CF18C4843FBF7DCFD62
:1048E000D4E91823FBF7F7FCC4E91001D4E90C2341
:1048F000FBF763FD0022264BC4E91201FBF7EAFD3A
:104900001ED2B07A642802D2401CB0722FE0F07A36
:10491000401CC0B2F0720328B0780DD940F00100FD
:10492000B070B079022803D20220B071FCF766FAA9
:10493000FCF722F8F5721AE000F09F00B07016E064
:10494000B57214E047F23052914204D2114900206E
:10495000C4E90E010BE040F00100B070B079062808
:1049600003D20620B071FCF749FAFCF705F80A48B3
:10497000FDF782FB6CE50000B0020020000024403F
:104980000000F03F000014409A9999999999C93F05
:104990000000E03F000049405403002000000000F8
:1049A00000000000010203040607080900000000DF
:1049B00001020304D449000800000020F0000000B8
:1049C000AC430008C44A0008F0000020980600002C
:1049D000BC430008000000000000000000000000D0
:1049E00000000000000000000000000000000000C7
:1049F00000000000000000000000000000000000B7
:104A000000000000000000000000000000000000A6
:104A10000000000000000000000000000000000096
:104A20000000000000000000000000000000000086
:104A30000000000000000000000000000000000076
:104A40000000000000000000000000000000000066
:104A50000000000000000000000000000000000056
:104A60000000000000000000000000000000000046
:104A70000000000000000000000000000000000036
:104A80000000000000000000000000000000000026
:104A90000000000000000000000000000000000016
:104AA0000000000000000000000000000000000006
:104AB00000000000000000000000000000A24A0406
:044AC00000000000F2
:0400000508000131BD
:00000001FF
